:100000000C942A000C94AD090C94E0090C94130A8A
:100010000C9447000C9447000C9447000C94470044
:100020000C9447000C9447000C9447000C94A006D5
:100030000C9447000C9447000C9447000C94470024
:100040000C9447000C9447000C9447000C94470014
:100050000C94470011241FBECFE5D8E0DEBFCDBF12
:1000600012E0A0E6B0E0ECE4FEE402C005900D92E0
:10007000A036B107D9F712E0A0E6B2E001C01D92A8
:10008000AF36B107E1F70E9468260C9424270C9440
:100090000000EF92FF920F931F937B018C0120E0F1
:1000A00030E040E05FE40E94490388238CF0C801FF
:1000B000B70120E030E040E05FE40E94C1010E940F
:1000C000A9039B01AC01205030404040504806C07D
:1000D000C801B7010E94A9039B01AC01B901CA0183
:1000E0001F910F91FF90EF900895A0E0B0E0EBE733
:1000F000F0E00C94ED26DC012B01FA019C9192308A
:1001000008F439C1EB018881823008F433C194309E
:1001100069F4843009F02FC111969C91119789815F
:10012000981709F428C1AFE3B1E025C1843009F480
:1001300021C18230A9F4923009F01DC19A01AD01AC
:1001400088E0EA010990AE01E90109929E0181501F
:10015000C1F7E201898111969C918923818308C1AD
:10016000923009F407C112962D903C901397EB0141
:100170008A819B811496AD90BD90CD90DC901797AD
:10018000EC80FD800E811F819101281B390BB90184
:1001900037FF04C066277727621B730B6032710537
:1001A0000CF061C0121613066CF537014801062EDB
:1001B00004C096948794779467940A94D2F721E0C8
:1001C00030E040E050E004C0220F331F441F551FB1
:1001D0006A95D2F721503040404050402E213F21B7
:1001E00040235123211531054105510521F021E01E
:1001F00030E040E050E079018A01E628F72808293C
:1002000019293CC0232BD1F1260E371E350146019A
:10021000062E04C096948794779467940A94D2F734
:1002200021E030E040E050E004C0220F331F441FC3
:10023000551F6A95D2F721503040404050402A2146
:100240003B214C215D21211531054105510521F04E
:1002500021E030E040E050E059016A01A628B728CB
:10026000C828D9280BC0821593052CF01C01AA249C
:10027000BB24650103C0EE24FF24870111969C91E5
:10028000D20111968C91981709F445C0992339F041
:10029000A80197012A193B094C095D0906C0A6016E
:1002A00095012E193F09400B510B57FD08C01182D3
:1002B0003382228224833583468357831DC081E0A5
:1002C00081833382228288279927DC01821B930B4A
:1002D000A40BB50B84839583A683B7830DC0220F2F
:1002E000331F441F551F24833583468357838281E0
:1002F000938101979383828324813581468157813D
:10030000DA01C9010197A109B1098F5F9F4FAF4F72
:10031000BF4328F30BC0918333822282EA0CFB1C7B
:100320000C1D1D1DE482F5820683178383E0808304
:10033000248135814681578157FF1AC0C901AA27F8
:1003400097FDA095BA2F81709070A070B0705695EF
:10035000479537952795822B932BA42BB52B848318
:100360009583A683B7838281938101969383828349
:10037000DF0101C0D201CD01CDB7DEB7E2E10C94BF
:100380000927A0E2B0E0E7ECF1E00C94F9266983DC
:100390007A838B839C832D833E834F835887E9E048
:1003A000EE2EF12CEC0EFD1ECE010196B7010E943F
:1003B0009A058E010F5E1F4FCE010596B8010E946F
:1003C0009A058A8991E089278A8BC701B801AE0115
:1003D000475E5F4F0E9475000E94C504A096E6E04C
:1003E0000C941527A0E2B0E0E8EFF1E00C94F926B8
:1003F00069837A838B839C832D833E834F835887C5
:10040000F9E0EF2EF12CEC0EFD1ECE010196B701A6
:100410000E949A058E010F5E1F4FCE010596B8010E
:100420000E949A05C701B801AE01475E5F4F0E9466
:1004300075000E94C504A096E6E00C941527A0E282
:10044000B0E0E5E2F2E00C94ED2669837A838B83D9
:100450009C832D833E834F835887CE010196BE0136
:10046000675F7F4F0E949A05CE010596BE016F5EC1
:100470007F4F0E949A059985923088F08989823051
:10048000C8F0943019F4823051F404C0843029F457
:10049000923081F48FE391E0C6C0923049F420E0BD
:1004A0009A858A89981321E02A87CE010996BBC0D4
:1004B000823049F420E09A858A89981321E02A8BBA
:1004C000CE014196B0C02D843E844F8458886D88FB
:1004D0007E888F88988CEE24FF248701AA24BB2471
:1004E000650140E050E060E070E0E0E0F0E0C10174
:1004F00081709070892BE9F0E60CF71C081D191D1E
:100500009A01AB012A0D3B1D4C1D5D1D80E090E062
:10051000A0E0B0E0E614F7040805190520F481E036
:1005200090E0A0E0B0E0BA01A901480F591F6A1F8E
:100530007B1FAA0CBB1CCC1CDD1C97FE08C081E0F5
:1005400090E0A0E0B0E0A82AB92ACA2ADB2A3196B6
:10055000E032F10549F0660C771C881C991C569412
:10056000479437942794C3CFFA85EA892B893C892D
:100570008B859C85280F391F2E5F3F4F17C0CA01FE
:1005800081709070892B61F016950795F794E79428
:1005900080E090E0A0E0B0E8E82AF92A0A2B1B2BC3
:1005A00076956795579547952F5F3F4F77FDE7CF36
:1005B0000CC0440F551F661F771F17FD4160EE0CDE
:1005C000FF1C001F111F21503040403090E05907A0
:1005D00090E0690790E4790760F32B8F3C8FDB0193
:1005E000CA018F779070A070B07080349105A1051A
:1005F000B10561F447FD0AC0E114F10401051105DC
:1006000029F0405C5F4F6F4F7F4F40781A8EFE1786
:1006100011F081E08A8F4D8F5E8F6F8F78A383E01A
:10062000898FCE0149960E94C504A096E2E10C9400
:100630000927A8E1B0E0EFE1F3E00C94F926698323
:100640007A838B839C832D833E834F83588789E0F5
:10065000E82EF12CEC0EFD1ECE010196B7010E9492
:100660009A058E010F5E1F4FCE010596B8010E94BC
:100670009A058985823040F08989823028F0C70147
:10068000B8010E94120601C08FEF6896E6E00C9454
:100690001527A8E1B0E0EFE4F3E00C94F9266983B4
:1006A0007A838B839C832D833E834F83588789E095
:1006B000E82EF12CEC0EFD1ECE010196B7010E9432
:1006C0009A058E010F5E1F4FCE010596B8010E945C
:1006D0009A058985823040F08989823028F0C701E7
:1006E000B8010E94120601C08FEF6896E6E00C94F4
:1006F0001527A8E1B0E0EFE7F3E00C94F926698351
:100700007A838B839C832D833E834F83588789E034
:10071000E82EF12CEC0EFD1ECE010196B7010E94D1
:100720009A058E010F5E1F4FCE010596B8010E94FB
:100730009A058985823040F08989823028F0C70186
:10074000B8010E94120601C081E06896E6E00C94B0
:100750001527ACE0B0E0EFEAF3E00C94FD266983E6
:100760007A838B839C83CE010196BE016B5F7F4FA2
:100770000E949A058D81823061F1823050F184307F
:1007800021F48E81882351F12EC02F81388537FDC9
:1007900020C06E812F3131051CF06623F9F023C093
:1007A0008EE190E0821B930B29853A854B855C8511
:1007B00004C056954795379527958A95D2F76623B5
:1007C000B1F050954095309521953F4F4F4F5F4F79
:1007D0000EC020E030E040E050E009C02FEF3FEFD6
:1007E0004FEF5FE704C020E030E040E050E8B9019F
:1007F000CA012C96E2E00C941927A8E0B0E0E3E0EF
:10080000F4E00C94F5267B018C01611571058105DE
:10081000910519F482E0898360C083E089838EE1C9
:10082000C82ED12CDC82CB82ED82FE820F8318870A
:10083000C801B7010E947604FC013197F7FF3BC065
:10084000222733272E1B3F0B57016801022E04C0BD
:10085000D694C794B794A7940A94D2F740E050E096
:1008600060E070E081E090E0A0E0B0E004C0880FBC
:10087000991FAA1FBB1F2A95D2F70197A109B10999
:100880008E219F21A023B1230097A105B10521F05E
:1008900041E050E060E070E04A295B296C297D2945
:1008A0004D835E836F8378878EE190E08E1B9F0B74
:1008B0009C838B8312C0309781F00E2E04C0EE0C07
:1008C000FF1C001F111F0A94D2F7ED82FE820F83D6
:1008D0001887CE1ADF0ADC82CB821A82CE010196FB
:1008E0000E94C5042896EAE00C941127EF92FF922B
:1008F0000F931F937B018C0180E0E81680E0F806DF
:1009000081E0080780E0180788F48FEFE816F1040B
:100910000105110531F028F088E090E0A0E0B0E09A
:1009200017C080E090E0A0E0B0E012C080E0E816E0
:1009300080E0F80680E0080781E0180728F088E1E9
:1009400090E0A0E0B0E004C080E190E0A0E0B0E082
:1009500020E230E040E050E0281B390B4A0B5B0BF3
:1009600004C016950795F794E7948A95D2F7F70196
:10097000E95BFE4F8081281B310941095109C901FA
:100980001F910F91FF90EF900895DF92EF92FF92E9
:100990000F931F93FC01E480F58006811781D180BD
:1009A0008081823048F480E090E0A0E1B0E0E82A65
:1009B000F92A0A2B1B2BA5C0843009F49FC0823072
:1009C00021F4EE24FF24870105C0E114F1040105A0
:1009D000110519F4E0E0F0E096C0628173819FEFA9
:1009E000623879070CF05BC022E83FEF261B370B1B
:1009F0002A3131052CF020E030E040E050E02AC000
:100A0000B801A701022E04C07695679557954795C2
:100A10000A94D2F781E090E0A0E0B0E004C0880F33
:100A2000991FAA1FBB1F2A95D2F70197A109B109E7
:100A30008E219F21A023B1230097A105B10521F0AC
:100A400081E090E0A0E0B0E09A01AB01282B392BC7
:100A50004A2B5B2BDA01C9018F779070A070B070C0
:100A600080349105A105B10539F427FF09C0205C48
:100A70003F4F4F4F5F4F04C0215C3F4F4F4F5F4F81
:100A8000E0E0F0E02030A0E03A07A0E04A07A0E470
:100A90005A0710F0E1E0F0E079018A0127C06038E0
:100AA000710564F5FB01E158FF4FD801C7018F774D
:100AB0009070A070B07080349105A105B10539F433
:100AC000E7FE0DC080E490E0A0E0B0E004C08FE35A
:100AD00090E0A0E0B0E0E80EF91E0A1F1B1F17FF10
:100AE00005C016950795F794E794319687E016951B
:100AF0000795F794E7948A95D1F705C0EE24FF2473
:100B00008701EFEFF0E06E2F679566276795902FCE
:100B10009F77D794DD24D7948E2F8695492F462B27
:100B2000582F5D29B701CA011F910F91FF90EF90D7
:100B3000DF900895FC01DB01408151812281622F09
:100B40006F7770E0221F2227221F9381892F880F41
:100B5000822B282F30E0991F9927991F11969C937B
:100B6000119721153105A9F541155105610571054B
:100B700011F482E037C082E89FEF13969C938E9326
:100B800012979A01AB0167E0220F331F441F551FD4
:100B90006A95D1F783E08C930DC0220F331F441F59
:100BA000551F12968D919C911397019713969C93C4
:100BB0008E931297203080E0380780E0480780E469
:100BC000580758F314962D933D934D935C931797C4
:100BD00008952F3F310579F44115510561057105DF
:100BE00019F484E08C93089564FF03C081E08C9332
:100BF00012C01C9210C02F57304013963C932E9376
:100C0000129783E08C9387E0440F551F661F771F70
:100C10008A95D1F7706414964D935D936D937C9390
:100C2000179708951F93DC01FB019C91923008F403
:100C300047C08081823008F443C0943051F411964B
:100C40001C91843099F58181682F70E0611B7109D6
:100C50003FC0843021F0923031F48230B9F181818B
:100C6000882389F12DC011961C9111978230F1F0E3
:100C700081811817D9F412962D913C911397828196
:100C800093818217930794F028173907BCF01496C4
:100C90008D919D910D90BC91A02D2481358146812F
:100CA0005781281739074A075B0718F4112341F0C9
:100CB0000AC082179307A407B50740F4112319F05F
:100CC00061E070E005C06FEF7FEF02C060E070E0B0
:100CD000CB011F910895DF93CF93CDB7DEB7A3E586
:100CE000B0E0E3E5F0E08081877F8C93A3E5B0E09E
:100CF000E3E5F0E080818F7B8C93A9E5B0E0E9E546
:100D0000F0E0808181608C93E2E5F0E080EC80830C
:100D1000A3E5B0E0E3E5F0E080818E7F8C93A3E56E
:100D2000B0E0E3E5F0E0808182608C93A3E5B0E081
:100D3000E3E5F0E080818B7F8C93CF91DF91089584
:100D40001F920F920FB60F9211242F933F934F9340
:100D50005F936F937F938F939F93AF93BF93EF9323
:100D6000FF93DF93CF93CDB7DEB78091620290916E
:100D70006302019690936302809362028091620203
:100D8000909163022FE08334920799F4E2E5F0E05A
:100D900080EC808310926302109262028091600264
:100DA00090916102009729F0E0916002F091610258
:100DB0000995CF91DF91FF91EF91BF91AF919F91F5
:100DC0008F917F916F915F914F913F912F910F90F4
:100DD0000FBE0F901F901895DF93CF9300D000D0D7
:100DE000CDB7DEB79B838A836C8381E089838A8158
:100DF0009B81009739F08A819B8190936102809357
:100E0000600201C0198289810F900F900F900F909E
:100E1000CF91DF910895DF93CF93CDB7DEB7AFE4E5
:100E2000B0E0EFE4F0E080818E7F8C93AFE4B0E03F
:100E3000EFE4F0E0808182608C93AEE4B0E0EEE419
:100E4000F0E0808188608C93AEE4B0E0EEE4F0E006
:100E5000808180618C93AFE4B0E0EFE4F0E08081CA
:100E60008F7B8C93AFE4B0E0EFE4F0E080818068AA
:100E70008C93E6E4F0E08FE19EE491838083EAE4E2
:100E8000F0E08FEC97E091838083AEE4B0E0EEE495
:100E9000F0E080818E7F8C93AEE4B0E0EEE4F0E091
:100EA000808182608C93AEE4B0E0EEE4F0E080817B
:100EB0008B7F8C93CF91DF910895DF93CF9300D0F8
:100EC00000D0CDB7DEB79C838B838B819C81CC0116
:100ED000A0E0B0E0BC01CD010E94FD03DC01CB012C
:100EE000BC01CD0123E333E343EB50E40E941F0236
:100EF000DC01CB01BC01CD0120E030EC49E754E43A
:100F00000E94F201DC01CB01BC01CD010E9449002D
:100F1000DC01CB019A838983EAE4F0E089819A813C
:100F2000918380830F900F900F900F90CF91DF915E
:100F30000895DF93CF93CDB7DEB7A3E5B0E0E3E547
:100F4000F0E0808180648C93A3E5B0E0E3E5F0E01D
:100F5000808188608C93A3E5B0E0E3E5F0E08081D8
:100F60008F7E8C93A3E5B0E0E3E5F0E080818062C2
:100F70008C93A3E5B0E0E3E5F0E080818E7F8C9375
:100F8000A3E5B0E0E3E5F0E0808182608C93A3E527
:100F9000B0E0E3E5F0E080818B7F8C93CF91DF912F
:100FA0000895DF93CF93CDB7DEB7A3E5B0E0E3E5D7
:100FB000F0E0808180648C93A3E5B0E0E3E5F0E0AD
:100FC0008081877F8C93A3E5B0E0E3E5F0E080814A
:100FD0008F7E8C93A3E5B0E0E3E5F0E08081806252
:100FE0008C93A3E5B0E0E3E5F0E080818E7F8C9305
:100FF000A3E5B0E0E3E5F0E0808182608C93A3E5B7
:10100000B0E0E3E5F0E080818B7F8C93CF91DF91BE
:101010000895DF93CF930F92CDB7DEB78983ECE5C8
:10102000F0E0898180830F90CF91DF910895DF9365
:10103000CF93CDB7DEB7AFE5B0E0EFE5F0E080816C
:1010400080688C93CF91DF910895DF93CF93CDB7D4
:10105000DEB7AFE5B0E0EFE5F0E080818F778C930D
:10106000CF91DF910895DF93CF93CDB7DEB72B9764
:101070000FB6F894DEBF0FBECDBF8A836B8381E0CD
:1010800089838A81282F30E03B872A878A859B8540
:101090008130910509F485C02A853B8522303105D0
:1010A00009F4F9C08A859B85009709F023C18B81DB
:1010B000282F30E0398728878885998581309105E8
:1010C00061F128853985223031052CF48885998590
:1010D000009769F064C0288539852230310509F40C
:1010E00048C0888599858330910569F158C0A5E588
:1010F000B0E0E5E5F0E0808181608C93A5E5B0E0AB
:10110000E5E5F0E0808182608C93ABE5B0E0EBE553
:10111000F0E0808180648C93EEC0A5E5B0E0E5E569
:10112000F0E080818E7F8C93A5E5B0E0E5E5F0E00E
:10113000808182608C93ABE5B0E0EBE5F0E08081EC
:1011400080648C93D8C0A5E5B0E0E5E5F0E080814F
:101150008E7F8C93A5E5B0E0E5E5F0E080818D7FA2
:101160008C93ABE5B0E0EBE5F0E0808180648C939C
:10117000C2C0A5E5B0E0E5E5F0E0808181608C9338
:10118000A5E5B0E0E5E5F0E080818D7F8C93ABE5EF
:10119000B0E0EBE5F0E0808180648C93ACC0198214
:1011A000AAC08B81282F30E03F832E838E819F81C0
:1011B0008130910561F12E813F81223031052CF47F
:1011C0008E819F81009769F064C02E813F8122301B
:1011D000310509F448C08E819F818330910569F102
:1011E00058C0A5E5B0E0E5E5F0E0808184608C932F
:1011F000A5E5B0E0E5E5F0E0808188608C93ABE5A3
:10120000B0E0EBE5F0E0808180688C9374C0A5E5E8
:10121000B0E0E5E5F0E080818B7F8C93A5E5B0E060
:10122000E5E5F0E0808188608C93ABE5B0E0EBE52C
:10123000F0E0808180688C935EC0A5E5B0E0E5E5D4
:10124000F0E080818B7F8C93A5E5B0E0E5E5F0E0F0
:101250008081877F8C93ABE5B0E0EBE5F0E08081A7
:1012600080688C9348C0A5E5B0E0E5E5F0E08081BA
:1012700084608C93A5E5B0E0E5E5F0E08081877FB0
:101280008C93ABE5B0E0EBE5F0E0808180688C9377
:1012900032C0198230C08B81282F30E03D832C83EF
:1012A0008C819D81009731F02C813D812130310569
:1012B00081F01EC0A4E5B0E0E4E5F0E08081806448
:1012C0008C93ABE5B0E0EBE5F0E0808180628C933D
:1012D00012C0A4E5B0E0E4E5F0E080818F7B8C9360
:1012E000ABE5B0E0EBE5F0E0808180628C9303C079
:1012F000198201C0198289812B960FB6F894DEBF3E
:101300000FBECDBFCF91DF910895DF93CF9300D073
:1013100000D0CDB7DEB79B838A836C8381E089835D
:101320008C81833088F48A819B81009769F08C815D
:10133000882F90E0880F991FFC01EC59FD4F8A819E
:101340009B819183808301C0198289810F900F90C6
:101350000F900F90CF91DF9108951F920F920FB6CB
:101360000F9211242F933F934F935F936F937F932B
:101370008F939F93AF93BF93EF93FF93DF93CF939D
:10138000CDB7DEB78091640290916502009729F095
:10139000E0916402F09165020995CF91DF91FF9190
:1013A000EF91BF91AF919F918F917F916F915F91DD
:1013B0004F913F912F910F900FBE0F901F90189556
:1013C0001F920F920FB60F9211242F933F934F93BA
:1013D0005F936F937F938F939F93AF93BF93EF939D
:1013E000FF93DF93CF93CDB7DEB7809166029091E4
:1013F0006702009729F0E0916602F0916702099573
:10140000CF91DF91FF91EF91BF91AF919F918F911C
:101410007F916F915F914F913F912F910F900FBEF0
:101420000F901F9018951F920F920FB60F921124D4
:101430002F933F934F935F936F937F938F939F93DC
:10144000AF93BF93EF93FF93DF93CF93CDB7DEB707
:101450008091680290916902009729F0E0916802FA
:10146000F09169020995CF91DF91FF91EF91BF91C2
:10147000AF919F918F917F916F915F914F913F912C
:101480002F910F900FBE0F901F901895DF93CF9361
:1014900000D000D00F92CDB7DEB789836A834B832B
:1014A0008981282F30E03D832C838C819D81813080
:1014B000910509F447C02C813D81223031052CF47F
:1014C0008C819D81009771F0CBC02C813D812230B1
:1014D000310509F467C08C819D818330910509F441
:1014E00091C0BEC08B818823A9F4AAE3B0E0EAE3EF
:1014F000F0E08081482F8A81282F30E081E090E061
:10150000022E02C0880F991F0A94E2F78095842367
:101510008C93A6C08B81813009F0A2C0AAE3B0E011
:10152000EAE3F0E08081482F8A81282F30E081E0D3
:1015300090E0022E02C0880F991F0A94E2F7842BD4
:101540008C938EC08B818823A9F4A7E3B0E0E7E3F6
:10155000F0E08081482F8A81282F30E081E090E000
:10156000022E02C0880F991F0A94E2F78095842307
:101570008C9376C08B81813009F072C0A7E3B0E014
:10158000E7E3F0E08081482F8A81282F30E081E076
:1015900090E0022E02C0880F991F0A94E2F7842B74
:1015A0008C935EC08B818823A9F4A4E3B0E0E4E3CC
:1015B000F0E08081482F8A81282F30E081E090E0A0
:1015C000022E02C0880F991F0A94E2F780958423A7
:1015D0008C9346C08B81813009F042C0A4E3B0E017
:1015E000E4E3F0E08081482F8A81282F30E081E019
:1015F00090E0022E02C0880F991F0A94E2F7842B14
:101600008C932EC08B818823A9F4A1E3B0E0E1E3A1
:10161000F0E08081482F8A81282F30E081E090E03F
:10162000022E02C0880F991F0A94E2F78095842346
:101630008C9316C08B81813099F4A1E3B0E0E1E393
:10164000F0E08081482F8A81282F30E081E090E00F
:10165000022E02C0880F991F0A94E2F7842B8C9304
:101660000F900F900F900F900F90CF91DF910895F2
:10167000DF93CF9300D000D00F92CDB7DEB7898330
:101680006A834B838981282F30E03D832C838C81B2
:101690009D818130910509F447C02C813D81223024
:1016A00031052CF48C819D81009771F0CBC02C8189
:1016B0003D812230310509F467C08C819D818330E2
:1016C000910509F491C0BEC08B818823A9F4ABE3D6
:1016D000B0E0EBE3F0E08081482F8A81282F30E0F2
:1016E00081E090E0022E02C0880F991F0A94E2F771
:1016F000809584238C93A6C08B81813009F0A2C091
:10170000ABE3B0E0EBE3F0E08081482F8A81282F43
:1017100030E081E090E0022E02C0880F991F0A9409
:10172000E2F7842B8C938EC08B818823A9F4A8E3E5
:10173000B0E0E8E3F0E08081482F8A81282F30E094
:1017400081E090E0022E02C0880F991F0A94E2F710
:10175000809584238C9376C08B81813009F072C090
:10176000A8E3B0E0E8E3F0E08081482F8A81282FE9
:1017700030E081E090E0022E02C0880F991F0A94A9
:10178000E2F7842B8C935EC08B818823A9F4A5E3B8
:10179000B0E0E5E3F0E08081482F8A81282F30E037
:1017A00081E090E0022E02C0880F991F0A94E2F7B0
:1017B000809584238C9346C08B81813009F042C090
:1017C000A5E3B0E0E5E3F0E08081482F8A81282F8F
:1017D00030E081E090E0022E02C0880F991F0A9449
:1017E000E2F7842B8C932EC08B818823A9F4A2E38B
:1017F000B0E0E2E3F0E08081482F8A81282F30E0DA
:1018000081E090E0022E02C0880F991F0A94E2F74F
:10181000809584238C9316C08B81813099F4A2E348
:10182000B0E0E2E3F0E08081482F8A81282F30E0A9
:1018300081E090E0022E02C0880F991F0A94E2F71F
:10184000842B8C930F900F900F900F900F90CF914F
:10185000DF910895DF93CF9300D000D000D0CDB7B3
:10186000DEB789836A838981282F30E03D832C830A
:101870004C815D814130510549F18C819D818230DF
:10188000910534F42C813D812115310561F057C05B
:101890004C815D814230510561F18C819D818330A5
:1018A0009105D1F14CC0E9E3F0E08081282F30E0D0
:1018B0008A81882F90E0A90102C0559547958A95A5
:1018C000E2F7CA01582F51705B833AC0E6E3F0E0BB
:1018D0008081282F30E08A81882F90E0A90102C002
:1018E000559547958A95E2F7CA01582F51705B8349
:1018F00027C0E3E3F0E08081282F30E08A81882F41
:1019000090E0A90102C0559547958A95E2F7CA0172
:10191000582F51705B8314C0E0E3F0E08081282FE2
:1019200030E08A81882F90E0A90102C05595479543
:101930008A95E2F7CA01582F51705B8301C002C03B
:101940008B818E838E8126960FB6F894DEBF0FBEF4
:10195000CDBFCF91DF910895DF93CF9300D000D01A
:10196000CDB7DEB789836A838981282F30E03C8335
:101970002B838B819C8181309105D1F02B813C811F
:10198000223031052CF48B819C81009761F01EC0C0
:101990002B813C812230310581F08B819C81833009
:1019A000910581F013C0EAE3F0E08A8180830EC0E4
:1019B000E7E3F0E08A81808309C0E4E3F0E08A8114
:1019C000808304C0E1E3F0E08A8180830F900F9070
:1019D0000F900F90CF91DF910895DF93CF9300D0B8
:1019E00000D0CDB7DEB789836A838981282F30E0A4
:1019F0003C832B838B819C8181309105D1F02B819D
:101A00003C81223031052CF48B819C81009761F060
:101A10001EC02B813C812230310581F08B819C815D
:101A20008330910581F013C0EBE3F0E08A8180837D
:101A30000EC0E8E3F0E08A81808309C0E5E3F0E0CE
:101A40008A81808304C0E2E3F0E08A8180830F9082
:101A50000F900F900F90CF91DF910895DF93CF9368
:101A6000CDB7DEB7A7E2B0E0E7E2F0E080818064C6
:101A70008C93A7E2B0E0E7E2F0E080818F778C936F
:101A8000A6E2B0E0E6E2F0E08081887F8C93A6E2F7
:101A9000B0E0E6E2F0E0808187608C93A6E2B0E0FF
:101AA000E6E2F0E0808180688C93CF91DF91089529
:101AB000DF93CF930F92CDB7DEB78983A7E2B0E073
:101AC000E7E2F0E08081807E8C93A7E2B0E0E7E27D
:101AD000F0E090818981892B8C93A6E2B0E0E6E268
:101AE000F0E0808180648C93E6E2F0E08081829572
:101AF0008F70882F90E0817090700097A9F3A6E214
:101B0000B0E0E6E2F0E0808180618C93E4E2F0E016
:101B1000808191810F90CF91DF910895DF93CF93D2
:101B2000CDB7DEB7E8970FB6F894DEBF0FBECDBFD6
:101B300081E061E041E00E94460A81E067E041E027
:101B40000E94460A81E062E041E00E94460A80E08D
:101B500060EF0E94AC0C80E090E0A8ECB2E48DABAA
:101B60009EABAFABB8AF6DA97EA98FA998AD20E0B1
:101B700030E04AEF54E40E941F02DC01CB0189AB44
:101B80009AABABABBCAB69A97AA98BA99CA920E0A5
:101B900030E040E85FE30E94790388232CF481E081
:101BA00090E098AB8FA73FC069A97AA98BA99CA99F
:101BB00020E03FEF4FE757E40E94190318164CF559
:101BC0006DA97EA98FA998AD20E030E040E251E4F4
:101BD0000E941F02DC01CB01BC01CD010E94490023
:101BE000DC01CB0198AB8FA70FC088EC90E09EA7DB
:101BF0008DA78DA59EA50197F1F79EA78DA78FA50F
:101C000098A9019798AB8FA78FA598A9009769F716
:101C100014C069A97AA98BA99CA90E944900DC017A
:101C2000CB0198AB8FA78FA598A99CA78BA78BA555
:101C30009CA50197F1F79CA78BA780E20E94910FCA
:101C400080E20E94910F80E80E94910F81E08093D2
:101C50006A0280E090E0A0E8BFE38FA398A7A9A75D
:101C6000BAA76FA178A589A59AA520E030E04AEF30
:101C700054E40E941F02DC01CB018BA39CA3ADA303
:101C8000BEA36BA17CA18DA19EA120E030E040E825
:101C90005FE30E94790388232CF481E090E09AA30B
:101CA00089A33FC06BA17CA18DA19EA120E03FEF45
:101CB0004FE757E40E94190318164CF56FA178A559
:101CC00089A59AA520E030E040E251E40E941F027D
:101CD000DC01CB01BC01CD010E944900DC01CB013C
:101CE0009AA389A30FC088EC90E098A38F8F8F8D63
:101CF00098A10197F1F798A38F8F89A19AA10197D5
:101D00009AA389A389A19AA1009769F714C06BA12E
:101D10007CA18DA19EA10E944900DC01CB019AA368
:101D200089A389A19AA19E8F8D8F8D8D9E8D0197FC
:101D3000F1F79E8F8D8F8FE00E94910F80E090E0F1
:101D4000A0E8BFE3898F9A8FAB8FBC8F698D7A8DA6
:101D50008B8D9C8D20E030E04AEF54E40E941F02FE
:101D6000DC01CB018D8B9E8BAF8BB88F6D897E890B
:101D70008F89988D20E030E040E85FE30E9479038E
:101D800088232CF481E090E09C8B8B8B3FC06D8985
:101D90007E898F89988D20E03FEF4FE757E40E94BE
:101DA000190318164CF5698D7A8D8B8D9C8D20E06A
:101DB00030E040E251E40E941F02DC01CB01BC0193
:101DC000CD010E944900DC01CB019C8B8B8B0FC0A5
:101DD00088EC90E09A8B898B89899A890197F1F731
:101DE0009A8B898B8B899C8901979C8B8B8B8B8998
:101DF0009C89009769F714C06D897E898F89988DB9
:101E00000E944900DC01CB019C8B8B8B8B899C89C8
:101E1000988B8F878F8598890197F1F7988B8F879B
:101E200081E00E94910F80E090E0A0E0B0E48B8719
:101E30009C87AD87BE876B857C858D859E8520E0E0
:101E400030E04AEF54E40E941F02DC01CB018F8393
:101E50009887A987BA876F81788589859A8520E0D8
:101E600030E040E85FE30E94790388232CF481E0AE
:101E700090E09E838D833FC06F81788589859A85A8
:101E800020E03FEF4FE757E40E94190318164CF586
:101E90006B857C858D859E8520E030E040E251E4B5
:101EA0000E941F02DC01CB01BC01CD010E94490050
:101EB000DC01CB019E838D830FC088EC90E09C8376
:101EC0008B838B819C810197F1F79C838B838D8120
:101ED0009E8101979E838D838D819E81009769F7F6
:101EE00014C06F81788589859A850E944900DC013C
:101EF000CB019E838D838D819E819A838983898185
:101F00009A810197F1F79A83898386E00E94910F65
:101F1000E8960FB6F894DEBF0FBECDBFCF91DF912C
:101F20000895DF93CF93CDB7DEB7E9970FB6F89456
:101F3000DEBF0FBECDBF89AF81E061E040E00E940F
:101F4000380B81E067E040E00E94380B81E062E0FE
:101F500041E00E94380B89AD82958F70982F917067
:101F600080E064E0492F0E94380B89AD8295869508
:101F70008770982F917080E065E0492F0E94380BA0
:101F800089AD8295869586958370982F917080E0B3
:101F900066E0492F0E94380B89AD982F991F992729
:101FA000991F80E067E0492F0E94380B80E090E0A5
:101FB000A0E8BFE38DAB9EABAFABB8AF6DA97EA978
:101FC0008FA998AD20E030E04AEF54E40E941F0250
:101FD000DC01CB0189AB9AABABABBCAB69A97AA9ED
:101FE0008BA99CA920E030E040E85FE30E947903E0
:101FF00088232CF481E090E098AB8FA73FC069A9BB
:102000007AA98BA99CA920E03FEF4FE757E40E94F3
:10201000190318164CF56DA97EA98FA998AD20E07B
:1020200030E040E251E40E941F02DC01CB01BC0120
:10203000CD010E944900DC01CB0198AB8FA70FC0F6
:1020400088EC90E09EA78DA78DA59EA50197F1F73E
:102050009EA78DA78FA598A9019798AB8FA78FA54D
:1020600098A9009769F714C069A97AA98BA99CA9B6
:102070000E944900DC01CB0198AB8FA78FA598A9DE
:102080009CA78BA78BA59CA50197F1F79CA78BA775
:1020900081E062E040E00E94380B80916A0281306A
:1020A00009F086C180E090E0A0E8BFE38FA398A785
:1020B000A9A7BAA76FA178A589A59AA520E030E0C5
:1020C0004AEF54E40E941F02DC01CB018BA39CA3C6
:1020D000ADA3BEA36BA17CA18DA19EA120E030E0A9
:1020E00040E85FE30E94790388232CF481E090E0CC
:1020F0009AA389A33FC06BA17CA18DA19EA120E0E2
:102100003FEF4FE757E40E94190318164CF56FA1F3
:1021100078A589A59AA520E030E040E251E40E942C
:102120001F02DC01CB01BC01CD010E944900DC0192
:10213000CB019AA389A30FC088EC90E098A38F8F5E
:102140008F8D98A10197F1F798A38F8F89A19AA1FC
:1021500001979AA389A389A19AA1009769F714C04E
:102160006BA17CA18DA19EA10E944900DC01CB0145
:102170009AA389A389A19AA19E8F8D8F8D8D9E8D03
:102180000197F1F79E8F8D8F81E062E041E00E9420
:10219000380B89AD982F917080E064E0492F0E9440
:1021A000380B89AD8695982F917080E065E0492FB6
:1021B0000E94380B89AD86958695982F917080E0A6
:1021C00066E0492F0E94380B89AD869586958695E5
:1021D000982F917080E067E0492F0E94380B80E0D3
:1021E00090E0A0E8BFE3898F9A8FAB8FBC8F698D99
:1021F0007A8D8B8D9C8D20E030E04AEF54E40E9474
:102200001F02DC01CB018D8B9E8BAF8BB88F6D894C
:102210007E898F89988D20E030E040E85FE30E945E
:10222000790388232CF481E090E09C8B8B8B3FC05A
:102230006D897E898F89988D20E03FEF4FE757E4C5
:102240000E94190318164CF5698D7A8D8B8D9C8D23
:1022500020E030E040E251E40E941F02DC01CB01AB
:10226000BC01CD010E944900DC01CB019C8B8B8B12
:102270000FC088EC90E09A8B898B89899A890197A5
:10228000F1F79A8B898B8B899C8901979C8B8B8B1F
:102290008B899C89009769F714C06D897E898F8925
:1022A000988D0E944900DC01CB019C8B8B8B8B8924
:1022B0009C89988B8F878F8598890197F1F7988BE8
:1022C0008F8781E062E040E00E94380B80E090E080
:1022D000A0E0B0E48B879C87AD87BE876B857C854B
:1022E0008D859E8520E030E04AEF54E40E941F0275
:1022F000DC01CB018F839887A987BA876F817885A6
:1023000089859A8520E030E040E85FE30E94790308
:1023100088232CF481E090E09E838D833FC06F8101
:10232000788589859A8520E03FEF4FE757E40E9442
:10233000190318164CF56B857C858D859E8520E0EC
:1023400030E040E251E40E941F02DC01CB01BC01FD
:10235000CD010E944900DC01CB019E838D830FC01B
:1023600088EC90E09C838B838B819C810197F1F7B3
:102370009C838B838D819E8101979E838D838D812C
:102380009E81009769F714C06F81788589859A8549
:102390000E944900DC01CB019E838D838D819E814B
:1023A0009A83898389819A810197F1F79A83898336
:1023B000E9960FB6F894DEBF0FBECDBFCF91DF9187
:1023C0000895DF93CF93CDB7DEB7E9970FB6F894B2
:1023D000DEBF0FBECDBF89AF81E061E041E00E946A
:1023E000380B81E067E040E00E94380B81E062E05A
:1023F00041E00E94380B89AD82958F70982F9170C3
:1024000080E064E0492F0E94380B89AD8295869563
:102410008770982F917080E065E0492F0E94380BFB
:1024200089AD8295869586958370982F917080E00E
:1024300066E0492F0E94380B89AD982F991F992784
:10244000991F80E067E0492F0E94380B80E090E000
:10245000A0E8BFE38DAB9EABAFABB8AF6DA97EA9D3
:102460008FA998AD20E030E04AEF54E40E941F02AB
:10247000DC01CB0189AB9AABABABBCAB69A97AA948
:102480008BA99CA920E030E040E85FE30E9479033B
:1024900088232CF481E090E098AB8FA73FC069A916
:1024A0007AA98BA99CA920E03FEF4FE757E40E944F
:1024B000190318164CF56DA97EA98FA998AD20E0D7
:1024C00030E040E251E40E941F02DC01CB01BC017C
:1024D000CD010E944900DC01CB0198AB8FA70FC052
:1024E00088EC90E09EA78DA78DA59EA50197F1F79A
:1024F0009EA78DA78FA598A9019798AB8FA78FA5A9
:1025000098A9009769F714C069A97AA98BA99CA911
:102510000E944900DC01CB0198AB8FA78FA598A939
:102520009CA78BA78BA59CA50197F1F79CA78BA7D0
:1025300081E062E040E00E94380B80E090E0A0E89B
:10254000BFE38FA398A7A9A7BAA76FA178A589A56C
:102550009AA520E030E04AEF54E40E941F02DC011B
:10256000CB018BA39CA3ADA3BEA36BA17CA18DA12A
:102570009EA120E030E040E85FE30E9479038823D9
:102580002CF481E090E09AA389A33FC06BA17CA1C9
:102590008DA19EA120E03FEF4FE757E40E94190371
:1025A00018164CF56FA178A589A59AA520E030E012
:1025B00040E251E40E941F02DC01CB01BC01CD01CD
:1025C0000E944900DC01CB019AA389A30FC088ECCB
:1025D00090E098A38F8F8F8D98A10197F1F798A322
:1025E0008F8F89A19AA101979AA389A389A19AA102
:1025F000009769F714C06BA17CA18DA19EA10E94D8
:102600004900DC01CB019AA389A389A19AA19E8FDD
:102610008D8F8D8D9E8D0197F1F79E8F8D8F81E02F
:1026200062E041E00E94380B89AD982F917080E004
:1026300064E0492F0E94380B89AD8695982F9170E0
:1026400080E065E0492F0E94380B89AD869586951C
:10265000982F917080E066E0492F0E94380B89AD79
:10266000869586958695982F917080E067E0492F32
:102670000E94380B80E090E0A0E8BFE3898F9A8F3A
:10268000AB8FBC8F698D7A8D8B8D9C8D20E030E077
:102690004AEF54E40E941F02DC01CB018D8B9E8B1C
:1026A000AF8BB88F6D897E898F89988D20E030E05F
:1026B00040E85FE30E94790388232CF481E090E0F6
:1026C0009C8B8B8B3FC06D897E898F89988D20E094
:1026D0003FEF4FE757E40E94190318164CF5698D38
:1026E0007A8D8B8D9C8D20E030E040E251E40E9499
:1026F0001F02DC01CB01BC01CD010E944900DC01BD
:10270000CB019C8B8B8B0FC088EC90E09A8B898BD4
:1027100089899A890197F1F79A8B898B8B899C8992
:1027200001979C8B8B8B8B899C89009769F714C0D0
:102730006D897E898F89988D0E944900DC01CB01CB
:102740009C8B8B8B8B899C89988B8F878F859889A5
:102750000197F1F7988B8F8781E062E040E00E945B
:10276000380B80E090E0A0E0B0E48B879C87AD87D9
:10277000BE876B857C858D859E8520E030E04AEFA5
:1027800054E40E941F02DC01CB018F839887A98744
:10279000BA876F81788589859A8520E030E040E8A6
:1027A0005FE30E94790388232CF481E090E09E830C
:1027B0008D833FC06F81788589859A8520E03FEFC2
:1027C0004FE757E40E94190318164CF56B857C857A
:1027D0008D859E8520E030E040E251E40E941F029A
:1027E000DC01CB01BC01CD010E944900DC01CB0121
:1027F0009E838D830FC088EC90E09C838B838B81BC
:102800009C810197F1F79C838B838D819E81019739
:102810009E838D838D819E81009769F714C06F819F
:10282000788589859A850E944900DC01CB019E83C9
:102830008D838D819E819A83898389819A81019775
:10284000F1F79A838983E9960FB6F894DEBF0FBE3D
:10285000CDBFCF91DF910895DF93CF9300D00F923A
:10286000CDB7DEB79B838A8319820EC08981282F5A
:1028700030E08A819B81FC01E20FF31F80810E947E
:10288000E11189818F5F89838981282F30E08A81D6
:102890009B81FC01E20FF31F8081882339F70F90A1
:1028A0000F900F90CF91DF910895DF93CF9300D0D9
:1028B0000F92CDB7DEB78A836B838A81882319F4A0
:1028C0008B81898306C08A81813019F48B81805C79
:1028D0008983898180580E94910F0F900F900F90EB
:1028E000CF91DF910895DF93CF93CDB7DEB7639794
:1028F0000FB6F894DEBF0FBECDBF688B798B8A8B85
:102900009B8B8AE0FE013696DF01982F1D929A95E7
:10291000E9F7198288899989AA89BB890097A10555
:10292000B10521F480E30E94E11177C0888999897B
:10293000AA89BB89181619061A061B060CF055C081
:1029400031C088899989AA89BB892AE030E040E0B2
:1029500050E0BC01CD010E94B026DC01CB018A838E
:102960009B83AC83BD838981282F30E04A81CE01CF
:102970000696FC01E20FF31F408388899989AA8992
:10298000BB892AE030E040E050E0BC01CD010E946C
:10299000B026DA01C901888B998BAA8BBB8B898100
:1029A0008F5F898388899989AA89BB890097A10546
:1029B000B10539F68981815089830FC08981282F1B
:1029C00030E0CE010696FC01E20FF31F8081805DAE
:1029D0000E94E1118981815089838981882371F75F
:1029E0008E81805D0E94E11118C088899989AA8929
:1029F000BB89BB2394F48DE20E94E11188899989F7
:102A0000AA89BB89B095A095909581959F4FAF4FAE
:102A1000BF4FBC01CD010E94731463960FB6F894AA
:102A2000DEBF0FBECDBFCF91DF910895DF93CF936F
:102A3000CDB7DEB727970FB6F894DEBF0FBECDBF78
:102A40009C838B836D834E832F838E816F810E9445
:102A500055148D810E94E1118D81882F90E0880F9F
:102A6000991F880F991F880F991F8A838A81806414
:102A70008A838A810E94910F19820EC08981282F32
:102A800030E08B819C81FC01E20FF31F80810E946A
:102A9000E11189818F5F89838981883078F382E0B1
:102AA0000E94910F27960FB6F894DEBF0FBECDBFE0
:102AB000CF91DF910895DF93CF93CDB7DEB7A29783
:102AC0000FB6F894DEBF0FBECDBF8FEF8C831D8293
:102AD00081E08E8382E08F8383E0888784E089872A
:102AE00085E08A8786E08B8787E08C87CE010D960C
:102AF0009F8F8E8FE0E5F2E0F9A3E8A3F0E1FAA35F
:102B0000E8A1F9A1008088A199A1019699A388A3C1
:102B1000EE8DFF8D00828E8D9F8D01969F8F8E8F03
:102B20009AA191509AA3EAA1EE2351F71A8262C0AA
:102B30008A81282F30E0CE010596FC01E20FF31FB9
:102B4000908182E0692F40E00E94380B1B823DC0DB
:102B50008B81282F30E0CE010996FC01E20FF31F94
:102B6000908182E0692F0E942A0C898389818823C1
:102B700049F58B81282F30E08A81482F50E0220FC1
:102B8000331F220F331FCE010196820F931F840F34
:102B9000951FFC013C9680818C830EC08B81282F71
:102BA00030E0CE010996FC01E20FF31F908182E034
:102BB000692F0E942A0C89838981882379F3FC81FB
:102BC000FD8F1EC08B818F5F8B838B81843008F4D7
:102BD000BFCF8A81282F30E0CE010596FC01E20F9D
:102BE000F31F908182E0692F41E00E94380B8A81B7
:102BF0008F5F8A838A81843008F49ACF8C818D8F8D
:102C00008D8DA2960FB6F894DEBF0FBECDBFCF91CB
:102C1000DF910895DF93CF93CDB7DEB783E065E012
:102C200041E00E94460A0E940B0784EB90E00E945C
:102C30005D07CF91DF910895DF93CF93CDB7DEB7D6
:102C400083E065E041E00E94460A0E9499078AE518
:102C500090E00E945D07CF91DF910895DF93CF93BD
:102C6000CDB7DEB762970FB6F894DEBF0FBECDBF0B
:102C700081E080934F0280E060E040E00E94460ADD
:102C80000E942E0D81E063E041E00E94460A80E050
:102C90000E94580D988B8F878F859889CC01A0E072
:102CA000B0E028E833E140E050E0BC01CD010E94F3
:102CB0007D26DC01CB01072E7AE0B695A795979586
:102CC00087957A95D1F7702D9A8B898B89899A8906
:102CD00021E08F30920708F484C00E940B070E9405
:102CE00099078F8598899C01220F331FC901880F8E
:102CF000991F880F991F820F931F0E94090880E077
:102D000090E0A8ECB2E48B879C87AD87BE876B858B
:102D10007C858D859E8520E030E04AEF54E40E945A
:102D20001F02DC01CB018F839887A987BA876F8147
:102D3000788589859A8520E030E040E85FE30E944D
:102D4000790388232CF481E090E09E838D833FC03B
:102D50006F81788589859A8520E03FEF4FE757E4BA
:102D60000E94190318164CF56B857C858D859E8510
:102D700020E030E040E251E40E941F02DC01CB0180
:102D8000BC01CD010E944900DC01CB019E838D83F3
:102D90000FC088EC90E09C838B838B819C81019792
:102DA000F1F79C838B838D819E8101979E838D8318
:102DB0008D819E81009769F714C06F817885898520
:102DC0009A850E944900DC01CB019E838D838D8111
:102DD0009E819A83898389819A810197F1F79A83E9
:102DE000898362960FB6F894DEBF0FBECDBFCF9138
:102DF000DF910895DF93CF93CDB7DEB710924F02E6
:102E000080E090E00E940908CF91DF9108950F9330
:102E10001F93DF93CF93CDB7DEB7C656D0400FB622
:102E2000F894DEBF0FBECDBF0E94801B0E942822F7
:102E3000FE01ED59FF4F808381E00E94910F80E0F9
:102E400060E00E945514FE01ED59FF4F8081282F4C
:102E500030E0A7963FAF2EAFA797A7968EAD9FAD58
:102E6000A7978230910509F49CC1A796EEADFFADFE
:102E7000A797E330F10509F4B1C2A7962EAD3FAD97
:102E8000A7972130310509F0B3C30E94071D813097
:102E900041F40E94B9230E94B21DA5961FAEA597CA
:102EA00020C480E690E00E942C14FE01E15AFF4FFE
:102EB00080E090E0A8ECB2E480839183A283B383A6
:102EC0008E01055A1F4FFE01E15AFF4F608171814B
:102ED0008281938120E030E04AEF54E40E941F0297
:102EE000DC01CB01F80180839183A283B383FE01CF
:102EF000E55AFF4F608171818281938120E030E04B
:102F000040E85FE30E947903882344F4FE01E75A16
:102F1000FF4F81E090E09183808364C0FE01E55A19
:102F2000FF4F608171818281938120E03FEF4FE705
:102F300057E40E94190318160CF043C0FE01E15A31
:102F4000FF4F608171818281938120E030E040E217
:102F500051E40E941F02DC01CB018E01075A1F4F72
:102F6000BC01CD010E944900DC01CB01F801918335
:102F700080831FC0FE01E95AFF4F88EC90E09183E7
:102F80008083FE01E95AFF4F808191810197F1F71B
:102F9000FE01E95AFF4F91838083DE01A75ABF4F9C
:102FA000FE01E75AFF4F80819181019711969C9312
:102FB0008E93FE01E75AFF4F808191810097D1F6F1
:102FC00027C08E01075A1F4FFE01E55AFF4F60814F
:102FD0007181828193810E944900DC01CB01F8015B
:102FE00091838083DE01AB5ABF4FFE01E75AFF4F4A
:102FF000808191818D939C93FE01EB5AFF4F8081DC
:1030000091810197F1F7FE01EB5AFF4F9183808385
:1030100081E00E94910F8EE690E00E942C1481E0E6
:1030200066E00E9455148EE790E00E942C14FE0189
:10303000EF5AFF4F80E090E0AAE7B4E480839183E9
:10304000A283B3838E01035B1F4FFE01EF5AFF4F34
:10305000608171818281938120E030E04AEF54E405
:103060000E941F02DC01CB01F80180839183A283BF
:10307000B383FE01E35BFF4F6081718182819381A5
:1030800020E030E040E85FE30E947903882344F4C5
:10309000FE01E55BFF4F81E090E09183808364C097
:1030A000FE01E35BFF4F608171818281938120E0AB
:1030B0003FEF4FE757E40E94190318160CF043C086
:1030C000FE01EF5AFF4F608171818281938120E080
:1030D00030E040E251E40E941F02DC01CB018E018E
:1030E000055B1F4FBC01CD010E944900DC01CB01F3
:1030F000F801918380831FC0FE01E75BFF4F88ECDE
:1031000090E091838083FE01E75BFF4F8081918196
:103110000197F1F7FE01E75BFF4F91838083DE01AA
:10312000A55BBF4FFE01E55BFF4F80819181019759
:1031300011969C938E93FE01E55BFF4F80819181F8
:103140000097D1F627C08E01055B1F4FFE01E35BA0
:10315000FF4F60817181828193810E944900DC016F
:10316000CB01F80191838083DE01A95BBF4FFE0193
:10317000E55BFF4F808191818D939C93FE01E95B1C
:10318000FF4F808191810197F1F7FE01E95BFF4FCD
:103190009183808381E00E94910FA5961FAEA59731
:1031A000A0C20E94401D813041F40E94B9230E94B8
:1031B000B21DA5961FAEA59794C280E690E00E942E
:1031C0002C14FE01ED5BFF4F80E090E0A6E9B3E434
:1031D00080839183A283B3838E01015C1F4FFE0124
:1031E000ED5BFF4F608171818281938120E030E04F
:1031F0004AEF54E40E941F02DC01CB01F8018083F6
:103200009183A283B383FE01FF96608171818281E5
:10321000938120E030E040E85FE30E947903882357
:103220002CF481E090E09EAF8DAF46C0FE01FF968A
:10323000608171818281938120E03FEF4FE757E405
:103240000E941903181664F5FE01ED5BFF4F6081C3
:1032500071818281938120E030E040E251E40E945C
:103260001F02DC01CB01BC01CD010E944900DC0141
:10327000CB019EAF8DAF0FC088EC90E09CAF8BAFC1
:103280008BAD9CAD0197F1F79CAF8BAF8DAD9EAD33
:1032900001979EAF8DAF8DAD9EAD009769F716C0BB
:1032A000FE01FF9660817181828193810E944900B5
:1032B000DC01CB019EAF8DAF8DAD9EAD9AAF89AFD6
:1032C00089AD9AAD0197F1F79AAF89AF81E00E947D
:1032D000910F8EE690E00E942C1481E066E00E943F
:1032E00055148EE790E00E942C1480E090E0AAE74D
:1032F000B5E48DAB9EABAFABB8AF6DA97EA98FA97E
:1033000098AD20E030E04AEF54E40E941F02DC0157
:10331000CB0189AB9AABABABBCAB69A97AA98BA942
:103320009CA920E030E040E85FE30E947903882315
:103330002CF481E090E098AB8FA73FC069A97AA9EF
:103340008BA99CA920E03FEF4FE757E40E941903A7
:1033500018164CF56DA97EA98FA998AD20E030E034
:1033600040E251E40E941F02DC01CB01BC01CD010F
:103370000E944900DC01CB0198AB8FA70FC088ECFD
:1033800090E09EA78DA78DA59EA50197F1F79EA71A
:103390008DA78FA598A9019798AB8FA78FA598A9FE
:1033A000009769F714C069A97AA98BA99CA90E9402
:1033B0004900DC01CB0198AB8FA78FA598A99CA7EA
:1033C0008BA78BA59CA50197F1F79CA78BA781E004
:1033D0000E94910FA5961FAEA59783C10E94791DEB
:1033E000813041F40E94B9230E94B21DA5961FAE00
:1033F000A59777C180E690E00E942C1480E090E0D1
:10340000A8ECB2E48FA398A7A9A7BAA76FA178A543
:1034100089A59AA520E030E04AEF54E40E941F02FB
:10342000DC01CB018BA39CA3ADA3BEA36BA17CA1AC
:103430008DA19EA120E030E040E85FE30E94790387
:1034400088232CF481E090E09AA389A33FC06BA16C
:103450007CA18DA19EA120E03FEF4FE757E40E94A1
:10346000190318164CF56FA178A589A59AA520E037
:1034700030E040E251E40E941F02DC01CB01BC01BC
:10348000CD010E944900DC01CB019AA389A30FC0A2
:1034900088EC90E098A38F8F8F8D98A10197F1F71A
:1034A00098A38F8F89A19AA101979AA389A389A133
:1034B0009AA1009769F714C06BA17CA18DA19EA170
:1034C0000E944900DC01CB019AA389A389A19AA19A
:1034D0009E8F8D8F8D8D9E8D0197F1F79E8F8D8F95
:1034E00081E00E94910F8EE690E00E942C1481E012
:1034F00066E00E9455148EE790E00E942C1480E054
:1035000090E0AAE7B5E4898F9A8FAB8FBC8F698D65
:103510007A8D8B8D9C8D20E030E04AEF54E40E9440
:103520001F02DC01CB018D8B9E8BAF8BB88F6D8919
:103530007E898F89988D20E030E040E85FE30E942B
:10354000790388232CF481E090E09C8B8B8B3FC027
:103550006D897E898F89988D20E03FEF4FE757E492
:103560000E94190318164CF5698D7A8D8B8D9C8DF0
:1035700020E030E040E251E40E941F02DC01CB0178
:10358000BC01CD010E944900DC01CB019C8B8B8BDF
:103590000FC088EC90E09A8B898B89899A89019772
:1035A000F1F79A8B898B8B899C8901979C8B8B8BEC
:1035B0008B899C89009769F714C06D897E898F89F2
:1035C000988D0E944900DC01CB019C8B8B8B8B89F1
:1035D0009C89988B8F878F8598890197F1F7988BB5
:1035E0008F8781E00E94910FA5961FAEA59779C0A5
:1035F00085E890E00E942C1480E090E0AFE2B4E413
:103600008B879C87AD87BE876B857C858D859E85E6
:1036100020E030E04AEF54E40E941F02DC01CB01BD
:103620008F839887A987BA876F81788589859A85DE
:1036300020E030E040E85FE30E94790388232CF427
:1036400081E090E09E838D833FC06F81788589857E
:103650009A8520E03FEF4FE757E40E9419031816C0
:103660004CF56B857C858D859E8520E030E040E2C1
:1036700051E40E941F02DC01CB01BC01CD010E947C
:103680004900DC01CB019E838D830FC088EC90E064
:103690009C838B838B819C810197F1F79C838B8327
:1036A0008D819E8101979E838D838D819E81009760
:1036B00069F714C06F81788589859A850E944900D1
:1036C000DC01CB019E838D838D819E819A838983CA
:1036D00089819A810197F1F79A838983A5961FAE14
:1036E000A597A5968FADA597CA59DF4F0FB6F89449
:1036F000DEBF0FBECDBFCF91DF911F910F91089517
:10370000DF93CF93CDB7DEB7AA970FB6F894DEBF9D
:103710000FBECDBF80E060E00E94551482E990E0CA
:103720000E942C1480E090E0A8ECB2E48FA398A74C
:10373000A9A7BAA76FA178A589A59AA520E030E02E
:103740004AEF54E40E941F02DC01CB018BA39CA32F
:10375000ADA3BEA36BA17CA18DA19EA120E030E012
:1037600040E85FE30E94790388232CF481E090E035
:103770009AA389A33FC06BA17CA18DA19EA120E04B
:103780003FEF4FE757E40E94190318164CF56FA15D
:1037900078A589A59AA520E030E040E251E40E9496
:1037A0001F02DC01CB01BC01CD010E944900DC01FC
:1037B000CB019AA389A30FC088EC90E098A38F8FC8
:1037C0008F8D98A10197F1F798A38F8F89A19AA166
:1037D00001979AA389A389A19AA1009769F714C0B8
:1037E0006BA17CA18DA19EA10E944900DC01CB01AF
:1037F0009AA389A389A19AA19E8F8D8F8D8D9E8D6D
:103800000197F1F79E8F8D8F81E00E94910F82E9E1
:1038100090E00E942C1480E090E0A8ECB2E4898F44
:103820009A8FAB8FBC8F698D7A8D8B8D9C8D20E0AC
:1038300030E04AEF54E40E941F02DC01CB018D8B83
:103840009E8BAF8BB88F6D897E898F89988D20E094
:1038500030E040E85FE30E94790388232CF481E0A4
:1038600090E09C8B8B8B3FC06D897E898F89988D72
:1038700020E03FEF4FE757E40E94190318164CF57C
:10388000698D7A8D8B8D9C8D20E030E040E251E493
:103890000E941F02DC01CB01BC01CD010E94490046
:1038A000DC01CB019C8B8B8B0FC088EC90E09A8B5A
:1038B000898B89899A890197F1F79A8B898B8B89F2
:1038C0009C8901979C8B8B8B8B899C89009769F7CE
:1038D00014C06D897E898F89988D0E944900DC0112
:1038E000CB019C8B8B8B8B899C89988B8F878F8549
:1038F00098890197F1F7988B8F8781E00E94910F4B
:1039000080E090E0A8ECB2E48B879C87AD87BE870F
:103910006B857C858D859E8520E030E04AEF54E400
:103920000E941F02DC01CB018F839887A987BA8789
:103930006F81788589859A8520E030E040E85FE3F3
:103940000E94790388232CF481E090E09E838D838C
:103950003FC06F81788589859A8520E03FEF4FE7EA
:1039600057E40E94190318164CF56B857C858D85EC
:103970009E8520E030E040E251E40E941F02DC011D
:10398000CB01BC01CD010E944900DC01CB019E832B
:103990008D830FC088EC90E09C838B838B819C810E
:1039A0000197F1F79C838B838D819E8101979E8384
:1039B0008D838D819E81009769F714C06F81788512
:1039C00089859A850E944900DC01CB019E838D8305
:1039D0008D819E819A83898389819A810197F1F7EC
:1039E0009A83898380EA90E00E942C1481E060E051
:1039F0000E94551480EB90E00E942C14AA960FB6FA
:103A0000F894DEBF0FBECDBFCF91DF910895DF9355
:103A1000CF9300D000D000D0CDB7DEB783E08D8348
:103A200021C00E943822DC01CB0189839A83AB83B9
:103A3000BC83209147023091480240914902509145
:103A40004A0289819A81AB81BC8182179307A407BE
:103A5000B50719F481E08E8309C00E9445248D8149
:103A600081508D838D818823E1F61E828E8126967A
:103A70000FB6F894DEBF0FBECDBFCF91DF91089592
:103A8000DF93CF9300D000D000D0CDB7DEB783E076
:103A90008D8321C00E943822DC01CB0189839A8367
:103AA000AB83BC8320914B0230914C0240914D027C
:103AB00050914E0289819A81AB81BC818217930714
:103AC000A407B50719F481E08E8309C00E9445243C
:103AD0008D8181508D838D818823E1F61E828E81B8
:103AE00026960FB6F894DEBF0FBECDBFCF91DF9103
:103AF0000895DF93CF9300D000D000D0CDB7DEB7CC
:103B000083E08D8321C00E943822DC01CB018983B0
:103B10009A83AB83BC8320916B0230916C024091FD
:103B20006D0250916E0289819A81AB81BC818217AE
:103B30009307A407B50719F481E08E8309C00E949A
:103B400045248D8181508D838D818823E1F61E82ED
:103B50008E8126960FB6F894DEBF0FBECDBFCF91F3
:103B6000DF9108950F931F93DF93CF93CDB7DEB707
:103B7000C756D0400FB6F894DEBF0FBECDBF8AEB5C
:103B800090E00E942C1481E060E00E94551489ECC2
:103B900090E00E942C14FE01E15AFF4F80E090E07B
:103BA000A8ECB2E480839183A283B3838E01055A8B
:103BB0001F4FFE01E15AFF4F608171818281938125
:103BC00020E030E04AEF54E40E941F02DC01CB0108
:103BD000F80180839183A283B383FE01E55AFF4FEE
:103BE000608171818281938120E030E040E85FE371
:103BF0000E947903882344F4FE01E75AFF4F81E0D5
:103C000090E09183808364C0FE01E55AFF4F60819C
:103C100071818281938120E03FEF4FE757E40E945A
:103C2000190318160CF043C0FE01E15AFF4F6081E2
:103C300071818281938120E030E040E251E40E9472
:103C40001F02DC01CB018E01075A1F4FBC01CD01C1
:103C50000E944900DC01CB01F801918380831FC0E1
:103C6000FE01E95AFF4F88EC90E091838083FE01CA
:103C7000E95AFF4F808191810197F1F7FE01E95ADE
:103C8000FF4F91838083DE01A75ABF4FFE01E75AA1
:103C9000FF4F80819181019711969C938E93FE0135
:103CA000E75AFF4F808191810097D1F627C08E019E
:103CB000075A1F4FFE01E55AFF4F608171818281D3
:103CC00093810E944900DC01CB01F801918380833C
:103CD000DE01AB5ABF4FFE01E75AFF4F8081918151
:103CE0008D939C93FE01EB5AFF4F80819181019748
:103CF000F1F7FE01EB5AFF4F918380830E94282247
:103D0000FE01EB59FF4F8083FE01EF5AFF4F80E029
:103D100090E0A8ECB2E480839183A283B3838E0108
:103D2000035B1F4FFE01EF5AFF4F6081718182815B
:103D3000938120E030E04AEF54E40E941F02DC014E
:103D4000CB01F80180839183A283B383FE01E35BFF
:103D5000FF4F608171818281938120E030E040E8F3
:103D60005FE30E947903882344F4FE01E55BFF4F83
:103D700081E090E09183808364C0FE01E35BFF4FAC
:103D8000608171818281938120E03FEF4FE757E4AA
:103D90000E94190318160CF043C0FE01EF5AFF4FA2
:103DA000608171818281938120E030E040E251E4C2
:103DB0000E941F02DC01CB018E01055B1F4FBC017D
:103DC000CD010E944900DC01CB01F8019183808381
:103DD0001FC0FE01E75BFF4F88EC90E0918380837A
:103DE000FE01E75BFF4F808191810197F1F7FE01B2
:103DF000E75BFF4F91838083DE01A55BBF4FFE0130
:103E0000E55BFF4F80819181019711969C938E9382
:103E1000FE01E55BFF4F808191810097D1F627C0BD
:103E20008E01055B1F4FFE01E35BFF4F60817181D7
:103E3000828193810E944900DC01CB01F8019183CA
:103E40008083DE01A95BBF4FFE01E55BFF4F8081F0
:103E500091818D939C93FE01E95BFF4F808191815D
:103E60000197F1F7FE01E95BFF4F9183808381E0C9
:103E70000E94910FFE01EB59FF4F8081282F30E007
:103E8000A8963FAF2EAFA897A8968EAD9FADA897E6
:103E90008230910529F1A896EEADFFADA897E330E9
:103EA000F10544F4A8962EAD3FADA8972130310519
:103EB00091F043C2A8968EAD9FADA897833091052F
:103EC00009F42DC1A896EEADFFADA897E430F10539
:103ED00009F430C232C20E944E230E94B21DA8C211
:103EE00088ED90E00E942C140E942822FE01EC59DB
:103EF000FF4F8083FE01EC59FF4F8081813009F034
:103F00008DC00E940A1681E00E94910FFE01ED5BB8
:103F1000FF4F80E090E0A0EAB1E480839183A28328
:103F2000B3838E01015C1F4FFE01ED5BFF4F60818B
:103F300071818281938120E030E04AEF54E40E9455
:103F40001F02DC01CB01F80180839183A283B3833C
:103F5000FE01FF96608171818281938120E030E0D3
:103F600040E85FE30E94790388232CF481E090E02D
:103F70009EAF8DAF46C0FE01FF9660817181828148
:103F8000938120E03FEF4FE757E40E941903181692
:103F900064F5FE01ED5BFF4F608171818281938149
:103FA00020E030E040E251E40E941F02DC01CB013E
:103FB000BC01CD010E944900DC01CB019EAF8DAF59
:103FC0000FC088EC90E09CAF8BAF8BAD9CAD0197A0
:103FD000F1F79CAF8BAF8DAD9EAD01979EAF8DAFCE
:103FE0008DAD9EAD009769F716C0FE01FF9660810A
:103FF0007181828193810E944900DC01CB019EAFD7
:104000008DAF8DAD9EAD9AAF89AF89AD9AAD019759
:10401000F1F79AAF89AF0E94B21D0AC2FE01EC59B6
:10402000FF4F8081823009F003C20E941C1681E09C
:104030000E94910F80E090E0A0EAB1E48DAB9EABCE
:10404000AFABB8AF6DA97EA98FA998AD20E030E0E5
:104050004AEF54E40E941F02DC01CB0189AB9AAB0A
:10406000ABABBCAB69A97AA98BA99CA920E030E0D5
:1040700040E85FE30E94790388232CF481E090E01C
:1040800098AB8FA73FC069A97AA98BA99CA920E00A
:104090003FEF4FE757E40E94190318164CF56DA93E
:1040A0007EA98FA998AD20E030E040E251E40E9463
:1040B0001F02DC01CB01BC01CD010E944900DC01E3
:1040C000CB0198AB8FA70FC088EC90E09EA78DA77F
:1040D0008DA59EA50197F1F79EA78DA78FA598A9FD
:1040E000019798AB8FA78FA598A9009769F714C07F
:1040F00069A97AA98BA99CA90E944900DC01CB017E
:1041000098AB8FA78FA598A99CA78BA78BA59CA5DB
:104110000197F1F79CA78BA70E94B21D89C188ED7A
:1041200090E00E942C140E942822FE01ED59FF4FBE
:104130008083FE01ED59FF4F8081813009F07AC004
:104140000E942E1681E00E94910F80E090E0A0EA8C
:10415000B1E48FA398A7A9A7BAA76FA178A589A54D
:104160009AA520E030E04AEF54E40E941F02DC01EF
:10417000CB018BA39CA3ADA3BEA36BA17CA18DA1FE
:104180009EA120E030E040E85FE30E9479038823AD
:104190002CF481E090E09AA389A33FC06BA17CA19D
:1041A0008DA19EA120E03FEF4FE757E40E94190345
:1041B00018164CF56FA178A589A59AA520E030E0E6
:1041C00040E251E40E941F02DC01CB01BC01CD01A1
:1041D0000E944900DC01CB019AA389A30FC088EC9F
:1041E00090E098A38F8F8F8D98A10197F1F798A3F6
:1041F0008F8F89A19AA101979AA389A389A19AA1D6
:10420000009769F714C06BA17CA18DA19EA10E94AB
:104210004900DC01CB019AA389A389A19AA19E8FB1
:104220008D8F8D8D9E8D0197F1F79E8F8D8F0E94C2
:10423000B21D80C0FE01ED59FF4F8081823009F030
:1042400079C00E94FA1681E00E94910F80E090E010
:10425000A0EAB1E4898F9A8FAB8FBC8F698D7A8D7C
:104260008B8D9C8D20E030E04AEF54E40E941F02C9
:10427000DC01CB018D8B9E8BAF8BB88F6D897E89D6
:104280008F89988D20E030E040E85FE30E94790359
:1042900088232CF481E090E09C8B8B8B3FC06D8950
:1042A0007E898F89988D20E03FEF4FE757E40E9489
:1042B000190318164CF5698D7A8D8B8D9C8D20E035
:1042C00030E040E251E40E941F02DC01CB01BC015E
:1042D000CD010E944900DC01CB019C8B8B8B0FC070
:1042E00088EC90E09A8B898B89899A890197F1F7FC
:1042F0009A8B898B8B899C8901979C8B8B8B8B8963
:104300009C89009769F714C06D897E898F89988D83
:104310000E944900DC01CB019C8B8B8B8B899C8993
:10432000988B8F878F8598890197F1F7988B8F8766
:104330000E94B21D0E9407177BC088EE90E00E9489
:104340002C1480E090E0AFE2B4E48B879C87AD87CB
:10435000BE876B857C858D859E8520E030E04AEFA9
:1043600054E40E941F02DC01CB018F839887A98748
:10437000BA876F81788589859A8520E030E040E8AA
:104380005FE30E94790388232CF481E090E09E8310
:104390008D833FC06F81788589859A8520E03FEFC6
:1043A0004FE757E40E94190318164CF56B857C857E
:1043B0008D859E8520E030E040E251E40E941F029E
:1043C000DC01CB01BC01CD010E944900DC01CB0125
:1043D0009E838D830FC088EC90E09C838B838B81C0
:1043E0009C810197F1F79C838B838D819E8101973E
:1043F0009E838D838D819E81009769F714C06F81A4
:10440000788589859A850E944900DC01CB019E83CD
:104410008D838D819E819A83898389819A81019779
:10442000F1F79A83898381E00E94910F0E94B21D67
:1044300080E060E00E945514C959DF4F0FB6F89430
:10444000DEBF0FBECDBFCF91DF911F910F910895B9
:10445000DF93CF930F92CDB7DEB70E945B158983B0
:1044600089818F3FD1F389810F90CF91DF9108959A
:10447000DF93CF93CDB7DEB764970FB6F894DEBF66
:104480000FBECDBF188A198A1A8A1B8A84E08F87CB
:1044900086EF90E00E942C1499C088899989AA8996
:1044A000BB892AE030E040E050E0BC01CD010E9431
:1044B0007D26DC01CB01888B998BAA8BBB8B0E945C
:1044C0002822282F30E040E050E088899989AA8985
:1044D000BB89820F931FA41FB51F888B998BAA8B52
:1044E000BB8B8AE20E94E11180E090E0A8ECB2E48C
:1044F0008B879C87AD87BE876B857C858D859E85E8
:1045000020E030E04AEF54E40E941F02DC01CB01BE
:104510008F839887A987BA876F81788589859A85DF
:1045200020E030E040E85FE30E94790388232CF428
:1045300081E090E09E838D833FC06F81788589857F
:104540009A8520E03FEF4FE757E40E9419031816C1
:104550004CF56B857C858D859E8520E030E040E2C2
:1045600051E40E941F02DC01CB01BC01CD010E947D
:104570004900DC01CB019E838D830FC088EC90E065
:104580009C838B838B819C810197F1F79C838B8328
:104590008D819E8101979E838D838D819E81009761
:1045A00069F714C06F81788589859A850E944900D2
:1045B000DC01CB019E838D838D819E819A838983CB
:1045C00089819A810197F1F79A8389838F858C8BF2
:1045D0008C89882311F081E08C8B8C899F85915088
:1045E0009F87882309F059CF81E00E94910F888925
:1045F0009989AA89BB89BC01CD0164960FB6F8944C
:10460000DEBF0FBECDBFCF91DF910895DF93CF9373
:10461000CDB7DEB781E064E041E00E94380BCF9176
:10462000DF910895DF93CF93CDB7DEB781E064E0EB
:1046300040E00E94380BCF91DF910895DF93CF9334
:10464000CDB7DEB781E065E041E00E94380BCF9145
:10465000DF910895DF93CF93CDB7DEB781E065E0BA
:1046600040E00E94380BCF91DF910895DF93CF9304
:10467000CDB7DEB781E066E041E00E94380BCF9114
:10468000DF910895DF93CF93CDB7DEB781E066E089
:1046900040E00E94380BCF91DF910895DF93CF93D4
:1046A00000D000D000D0CDB7DEB78FEF90E00E94F1
:1046B0002C1481E060E00E94551480E191E00E949A
:1046C0002C140E9428228C8381E00E94910F89E1A2
:1046D00091E00E942C148C81282F30E03E832D83A2
:1046E0008D819E8182309105C9F02D813E812330DC
:1046F000310519F18D819E818130910561F50E940E
:1047000028228B838B81813019F40E94062323C0D9
:104710008B81823001F50E9412231DC00E94282245
:104720008A838A81813019F40E941E2314C08A81F1
:10473000823089F40E942A230EC00E942822898395
:104740008981813019F40E94362305C08981823025
:1047500011F40E94422381E00E94910F0E94B21D39
:1047600026960FB6F894DEBF0FBECDBFCF91DF9176
:104770000895DF93CF93CDB7DEB72E970FB6F89499
:10478000DEBF0FBECDBF87E291E00E942C1480E017
:1047900090E0AAEFB3E48B879C87AD87BE876B85DB
:1047A0007C858D859E8520E030E04AEF54E40E94B0
:1047B0001F02DC01CB018F839887A987BA876F819D
:1047C000788589859A8520E030E040E85FE30E94A3
:1047D000790388232CF481E090E09E838D833FC091
:1047E0006F81788589859A8520E03FEF4FE757E410
:1047F0000E94190318164CF56B857C858D859E8566
:1048000020E030E040E251E40E941F02DC01CB01D5
:10481000BC01CD010E944900DC01CB019E838D8348
:104820000FC088EC90E09C838B838B819C810197E7
:10483000F1F79C838B838D819E8101979E838D836D
:104840008D819E81009769F714C06F817885898575
:104850009A850E944900DC01CB019E838D838D8166
:104860009E819A83898389819A810197F1F79A833E
:10487000898381E00E94910F2E960FB6F894DEBFD7
:104880000FBECDBFCF91DF910895DF93CF93CDB70A
:10489000DEB72E970FB6F894DEBF0FBECDBF83E311
:1048A00091E00E942C1480E090E0AAEFB3E48B87A3
:1048B0009C87AD87BE876B857C858D859E8520E036
:1048C00030E04AEF54E40E941F02DC01CB018F83E9
:1048D0009887A987BA876F81788589859A8520E02E
:1048E00030E040E85FE30E94790388232CF481E004
:1048F00090E09E838D833FC06F81788589859A85FE
:1049000020E03FEF4FE757E40E94190318164CF5DB
:104910006B857C858D859E8520E030E040E251E40A
:104920000E941F02DC01CB01BC01CD010E944900A5
:10493000DC01CB019E838D830FC088EC90E09C83CB
:104940008B838B819C810197F1F79C838B838D8175
:104950009E8101979E838D838D819E81009769F74B
:1049600014C06F81788589859A850E944900DC0191
:10497000CB019E838D838D819E819A8389838981DA
:104980009A810197F1F79A83898381E00E94910FC0
:104990002E960FB6F894DEBF0FBECDBFCF91DF913C
:1049A0000895DF93CF93CDB7DEB728970FB6F8946D
:1049B000DEBF0FBECDBF81E063E041E00E94460A4A
:1049C00080E061E040E00E94460A0E942E0D81E0F6
:1049D0000E94580D9C838B838B819C81CC01A0E02D
:1049E000B0E028E833E140E050E0BC01CD010E9496
:1049F0007D26DC01CB01072E7AE0B695A795979529
:104A000087957A95D1F7702D9A83898389819A81C8
:104A10002DE08D3A920738F00E9406230E941E2353
:104A20000E94362306C00E9412230E942A230E945D
:104A3000422328960FB6F894DEBF0FBECDBFCF91AC
:104A4000DF910895DF93CF93CDB7DEB762970FB6AE
:104A5000F894DEBF0FBECDBF80E060E040E00E9472
:104A6000460A0E942E0D81E063E041E00E94460A62
:104A700080E00E94580D988B8F878F859889CC0194
:104A8000A0E0B0E028E833E140E050E0BC01CD0117
:104A90000E947D26DC01CB01072E7AE0B695A79512
:104AA000979587957A95D1F7702D9A8B898B8989FF
:104AB0009A8921E08F3A920708F48CC080914F02C6
:104AC000882309F487C00E940B070E9499078989EF
:104AD0009A892AE030E0B9010E949C26CB019C0112
:104AE000C901880F991F820F931F0E94090880E057
:104AF00090E0A0EAB0E48B879C87AD87BE876B858A
:104B00007C858D859E8520E030E04AEF54E40E944C
:104B10001F02DC01CB018F839887A987BA876F8139
:104B2000788589859A8520E030E040E85FE30E943F
:104B3000790388232CF481E090E09E838D833FC02D
:104B40006F81788589859A8520E03FEF4FE757E4AC
:104B50000E94190318164CF56B857C858D859E8502
:104B600020E030E040E251E40E941F02DC01CB0172
:104B7000BC01CD010E944900DC01CB019E838D83E5
:104B80000FC088EC90E09C838B838B819C81019784
:104B9000F1F79C838B838D819E8101979E838D830A
:104BA0008D819E81009769F71EC06F817885898508
:104BB0009A850E944900DC01CB019E838D838D8103
:104BC0009E819A83898389819A810197F1F79A83DB
:104BD000898309C081E063E040E00E94460A80E0EA
:104BE00090E00E94090862960FB6F894DEBF0FBEEF
:104BF000CDBFCF91DF910895DF93CF93CDB7DEB7CF
:104C000082E060E041E00E94460A82E061E041E02B
:104C10000E94460A82E062E041E00E94460A82E089
:104C200063E041E00E94460A82E065E040E00E94C5
:104C3000460A82E065E040E00E94460A82E066E0C3
:104C400040E00E94460A82E067E040E00E94460A97
:104C500082E06FEF0E94ED0C81E064E041E00E9491
:104C6000460A81E065E041E00E94460A81E066E094
:104C700041E00E94460A0E948E0D80E061E041E022
:104C80000E94460A83E062E040E00E94460A80E01B
:104C900062E041E00E94460A83E063E040E00E9457
:104CA000460A0E94170881ED94E260E00E9485099F
:104CB00082E295E261E00E94850980E062E00E9464
:104CC000330881E062E00E943308CF91DF910895BC
:104CD000DF93CF930F92CDB7DEB70E94FC251982E8
:104CE00003C00E940717898389818823D1F380E05C
:104CF00090E00F90CF91DF910895629FD001739F54
:104D0000F001829FE00DF11D649FE00DF11D929F67
:104D1000F00D839FF00D749FF00D659FF00D9927A6
:104D2000729FB00DE11DF91F639FB00DE11DF91FCA
:104D3000BD01CF0111240895AA1BBB1B51E107C07F
:104D4000AA1FBB1FA617B70710F0A61BB70B881F1B
:104D5000991F5A95A9F780959095BC01CD010895AA
:104D600097FB092E05260ED057FD04D014D00AD08B
:104D7000001C38F450954095309521953F4F4F4F8A
:104D80005F4F0895F6F790958095709561957F4FE8
:104D90008F4F9F4F0895A1E21A2EAA1BBB1BFD0146
:104DA0000DC0AA1FBB1FEE1FFF1FA217B307E4070A
:104DB000F50720F0A21BB30BE40BF50B661F771F62
:104DC000881F991F1A9469F7609570958095909542
:104DD0009B01AC01BD01CF0108952F923F924F92EC
:104DE0005F926F927F928F929F92AF92BF92CF927B
:104DF000DF92EF92FF920F931F93CF93DF93CDB784
:104E0000DEB7CA1BDB0B0FB6F894DEBF0FBECDBFFB
:104E100009942A88398848885F846E847D848C84CC
:104E20009B84AA84B984C884DF80EE80FD800C81D5
:104E30001B81AA81B981CE0FD11D0FB6F894DEBFB8
:0C4E40000FBECDBFED010895F894FFCF28
:104E4C006E6F207472696573206C65667400747281
:104E5C007920616761696E20616674657200323019
:104E6C00207365630057726F6E67204F7074696FA3
:104E7C006E0020203E3E77656C636F6D653C3C0098
:104E8C00312D757365723120322D75736572320058
:104E9C00332D7573657233202000312D526F6F6D79
:104EAC007320322D446F6F7200332D46616E2020BB
:104EBC0020342D4261636B00312D6F70656E2020A4
:104ECC00322D636C6F7365002057726F6E67204FC5
:104EDC007074696F6E002050617373203A2000313A
:104EEC002D526F6F6D312020322D526F6F6D32004D
:104EFC00332D526F6F6D33200020312D6F6E2020BB
:104F0C0020322D6F666600205269676874205061EC
:104F1C007373002057726F6E6720506173730000BB
:104F2C000000000000000000010202030303030460
:104F3C00040404040404040505050505050505051C
:104F4C0005050505050505060606060606060606FC
:104F5C0006060606060606060606060606060606E5
:104F6C0006060606060606070707070707070707CC
:104F7C0007070707070707070707070707070707B5
:104F8C0007070707070707070707070707070707A5
:104F9C000707070707070707070707070707070795
:104FAC00070707070707070808080808080808087C
:104FBC000808080808080808080808080808080865
:104FCC000808080808080808080808080808080855
:104FDC000808080808080808080808080808080845
:104FEC000808080808080808080808080808080835
:104FFC000808080808080808080808080808080825
:10500C000808080808080808080808080808080814
:10501C000808080808080808080808080808080804
:10502C000808080808080857040000AE080000012A
:10503C000708092F040506780102032D00003D2BFB
:00000001FF
