:100000000C942A000C94BE000C94F3000C9428016C
:100010000C9447000C9447000C9447000C94470044
:100020000C9447000C9447000C9447000C94470034
:100030000C9447000C9447000C9447000C94470024
:100040000C9447000C9447000C9447000C94470014
:100050000C94470011241FBECFE5D8E0DEBFCDBF12
:1000600011E0A0E6B0E0E2EBF1E602C005900D92EF
:10007000A633B107D9F721E0A6E3B1E001C01D9294
:10008000A134B207E1F70E94871D0C94CA300C948A
:100090000000CF93DF93CDB7DEB78FE590E0FC0192
:1000A00020818FE590E02068FC0120830000DF9133
:1000B000CF910895CF93DF93CDB7DEB78FE590E072
:1000C000FC0120818FE590E02F77FC012083000068
:1000D000DF91CF910895CF93DF93CDB7DEB78BE556
:1000E00090E0FC0120818BE590E02F7BFC012083D8
:1000F0000000DF91CF910895CF93DF93CDB7DEB7A6
:100100008BE590E0FC0120818BE590E02F77FC01EE
:1001100020830000DF91CF910895CF93DF93CDB777
:10012000DEB78BE590E0FC0120818BE590E02F7D30
:10013000FC0120830000DF91CF910895CF93DF93DE
:1001400000D00F92CDB7DEB79A8389836B83898104
:100150009A81009761F08B81882F90E0880F991F1A
:100160008A5C9E4F29813A81FC0131832083000003
:100170000F900F900F90DF91CF9108951F920F92E3
:100180000FB60F9211242F933F934F935F936F936A
:100190007F938F939F93AF93BF93EF93FF93CF93EF
:1001A000DF93CDB7DEB7809136019091370100978C
:1001B00031F08091360190913701FC0109950000E2
:1001C000DF91CF91FF91EF91BF91AF919F918F916F
:1001D0007F916F915F914F913F912F910F900FBE43
:1001E0000F901F9018951F920F920FB60F92112427
:1001F0002F933F934F935F936F937F938F939F932F
:10020000AF93BF93EF93FF93CF93DF93CDB7DEB759
:100210008091380190913901009731F08091380137
:1002200090913901FC0109950000DF91CF91FF9178
:10023000EF91BF91AF919F918F917F916F915F915E
:100240004F913F912F910F900FBE0F901F901895D7
:100250001F920F920FB60F9211242F933F934F933B
:100260005F936F937F938F939F93AF93BF93EF931E
:10027000FF93CF93DF93CDB7DEB780913A01909192
:100280003B01009731F080913A0190913B01FC01D4
:1002900009950000DF91CF91FF91EF91BF91AF9150
:1002A0009F918F917F916F915F914F913F912F918E
:1002B0000F900FBE0F901F901895CF93DF930F9262
:1002C000CDB7DEB789838981882F90E08230910590
:1002D000F1F08230910509F024F5009721F081308A
:1002E000910559F01EC08BE590E0FC0120818BE563
:1002F00090E02F7BFC01208314C08BE590E0FC0193
:1003000020818BE590E02F77FC0120830AC08BE5EC
:1003100090E0FC0120818BE590E02F7DFC012083A3
:10032000000000000F90DF91CF910895CF93DF93ED
:100330000F92CDB7DEB789838981882F90E0843012
:10034000910509F44DC08430910511F00CF05BC0AB
:100350008330910591F18330910511F00CF053C079
:100360008130910521F082309105A1F04CC085E5E6
:1003700090E0FC01208185E590E02E7FFC01208348
:1003800085E590E0FC01208185E590E02D7FFC0172
:10039000208339C085E590E0FC01208185E590E06F
:1003A0002160FC01208385E590E0FC01208185E54A
:1003B00090E02D7FFC01208326C085E590E0FC01C4
:1003C000208185E590E02E7FFC01208385E590E08B
:1003D000FC01208185E590E02260FC01208313C0B0
:1003E00085E590E0FC01208185E590E02160FC013D
:1003F000208385E590E0FC01208185E590E0226086
:10040000FC012083000000000F90DF91CF91089540
:10041000CF93DF9300D00F92CDB7DEB789836A8385
:100420004B838981882F90E08330910509F4B0C017
:100430008330910511F00CF0E5C08230910509F48C
:1004400073C08230910511F00CF0DCC0009721F0F0
:1004500081309105A9F1D6C08B818823B9F48AE354
:1004600090E0FC018081482F8A81282F30E081E0D4
:1004700090E002C0880F991F2A95E2F78095242FFB
:1004800028238AE390E0FC012083B5C08B81813072
:1004900009F0B1C08AE390E0FC018081482F8A8195
:1004A000282F30E081E090E002C0880F991F2A9544
:1004B000E2F7242F282B8AE390E0FC0120839BC0E5
:1004C0008B818823B9F487E390E0FC018081482F79
:1004D0008A81282F30E081E090E002C0880F991FC8
:1004E0002A95E2F78095242F282387E390E0FC01EA
:1004F000208383C08B81813009F07FC087E390E047
:10050000FC018081482F8A81282F30E081E090E033
:1005100002C0880F991F2A95E2F7242F282B87E322
:1005200090E0FC01208369C08B818823B9F484E3C7
:1005300090E0FC018081482F8A81282F30E081E003
:1005400090E002C0880F991F2A95E2F78095242F2A
:10055000282384E390E0FC01208351C08B8181300B
:1005600009F04DC084E390E0FC018081482F8A812E
:10057000282F30E081E090E002C0880F991F2A9573
:10058000E2F7242F282B84E390E0FC01208337C07E
:100590008B818823B9F481E390E0FC018081482FAE
:1005A0008A81282F30E081E090E002C0880F991FF7
:1005B0002A95E2F78095242F282381E390E0FC011F
:1005C00020831FC08B818130E1F481E390E0FC0146
:1005D0008081482F8A81282F30E081E090E002C09E
:1005E000880F991F2A95E2F7242F282B81E390E0AA
:1005F000FC01208306C0000005C0000003C000000D
:1006000001C0000000000F900F900F90DF91CF917C
:100610000895CF93DF9300D00F92CDB7DEB78983D3
:100620006A834B838981882F90E08330910509F498
:10063000B0C08330910511F00CF0E5C08230910517
:1006400009F473C08230910511F00CF0DCC0009702
:1006500021F081309105A9F1D6C08B818823B9F4AE
:100660008BE390E0FC018081482F8A81282F30E0C5
:1006700081E090E002C0880F991F2A95E2F78095EB
:10068000242F28238BE390E0FC012083B5C08B81CD
:10069000813009F0B1C08BE390E0FC018081482FEC
:1006A0008A81282F30E081E090E002C0880F991FF6
:1006B0002A95E2F7242F282B8BE390E0FC0120837E
:1006C0009BC08B818823B9F488E390E0FC01808192
:1006D000482F8A81282F30E081E090E002C0880F07
:1006E000991F2A95E2F78095242F282388E390E02C
:1006F000FC01208383C08B81813009F07FC088E3B7
:1007000090E0FC018081482F8A81282F30E081E031
:1007100090E002C0880F991F2A95E2F7242F282B1A
:1007200088E390E0FC01208369C08B818823B9F4C1
:1007300085E390E0FC018081482F8A81282F30E0FA
:1007400081E090E002C0880F991F2A95E2F780951A
:10075000242F282385E390E0FC01208351C08B8166
:10076000813009F04DC085E390E0FC018081482F85
:100770008A81282F30E081E090E002C0880F991F25
:100780002A95E2F7242F282B85E390E0FC012083B3
:1007900037C08B818823B9F482E390E0FC0180812B
:1007A000482F8A81282F30E081E090E002C0880F36
:1007B000991F2A95E2F78095242F282382E390E061
:1007C000FC0120831FC08B818130E1F482E390E043
:1007D000FC018081482F8A81282F30E081E090E061
:1007E00002C0880F991F2A95E2F7242F282B82E355
:1007F00090E0FC01208306C0000005C0000003C09B
:10080000000001C0000000000F900F900F90DF91DA
:10081000CF910895CF93DF9300D0CDB7DEB7898312
:100820006A838981882F90E08330910509F446C05E
:100830008330910511F00CF052C08230910569F1BE
:100840008230910511F00CF04AC0009721F0813000
:10085000910591F044C089E390E0FC018081882FEC
:1008600090E02A81222F30E0022E02C095958795D4
:100870000A94E2F7817033C086E390E0FC01808146
:10088000882F90E02A81222F30E0022E02C0959519
:1008900087950A94E2F7817022C083E390E0FC011F
:1008A0008081882F90E02A81222F30E0022E02C022
:1008B000959587950A94E2F7817011C080E390E0E6
:1008C000FC018081882F90E02A81222F30E0022EC7
:1008D00002C0959587950A94E2F7817000C00F9049
:1008E0000F90DF91CF910895CF93DF9300D0CDB7D4
:1008F000DEB789836A838981882F90E083309105F0
:1009000019F18330910509F02CF582309105B1F091
:100910008230910509F0F4F4009721F081309105BF
:1009200039F018C08AE390E02A81FC01208313C0CB
:1009300087E390E02A81FC0120830DC084E390E0EE
:100940002A81FC01208307C081E390E02A81FC0119
:10095000208301C0000000000F900F90DF91CF9125
:100960000895CF93DF9300D0CDB7DEB789836A8334
:100970008981882F90E08330910519F183309105AA
:1009800009F02CF582309105B1F08230910509F023
:10099000F4F4009721F08130910539F018C08BE311
:1009A00090E02A81FC01208313C088E390E02A8133
:1009B000FC0120830DC085E390E02A81FC012083A7
:1009C00007C082E390E02A81FC01208301C000007F
:1009D00000000F900F90DF91CF910895CF93DF9398
:1009E0000F92CDB7DEB789838981882F90E083305D
:1009F000910501F18330910509F00CF582309105E4
:100A0000A1F08230910509F0D4F4009721F08130F3
:100A1000910531F014C089E390E0FC01808110C0A1
:100A200086E390E0FC0180810BC083E390E0FC0151
:100A3000808106C080E390E0FC01808101C000005D
:100A40000F90DF91CF910895CF93DF93CDB7DEB7AD
:100A500041E060E082E00E94080241E061E082E063
:100A60000E94080241E062E082E00E94080241E048
:100A700063E082E00E9408020000DF91CF910895B8
:100A80000F931F93CF93DF93CDB7DEB7CB5AD10926
:100A90000FB6F894DEBF0FBECDBF82E00E94EE0419
:100AA00089838981882F90E08830910509F422C3D9
:100AB0008830910511F00CF02BC48430910509F4B5
:100AC00050C28430910511F00CF022C4823091059F
:100AD00009F47EC18230910511F00CF019C4009721
:100AE00029F08130910509F4BAC012C441E060E0F8
:100AF00082E00E94090340E061E082E00E94090375
:100B000040E062E082E00E94090340E063E082E0AE
:100B10000E94090380E090E0A0EAB0E48A839B830E
:100B2000AC83BD8320E030E04AEF54E46A817B81EE
:100B30008C819D810E943530A0966CAF7DAF8EAFC9
:100B40009FAFA097A0968CAD9DADAEADBFADA09769
:100B50008E839F83A887B98720E030E040E85FE379
:100B60006E817F81888599850E94AF2F88232CF420
:100B700081E090E09B878A8766C020E03FEF4FE7E7
:100B800057E46E817F81888599850E943030882363
:100B900009F00CF446C020E030E040E251E46A8104
:100BA0007B818C819D810E943530A4966CAF7DAF96
:100BB0008EAF9FAFA497A4968CAD9DADAEADBFADEB
:100BC000A4972C968CAF9DAFAEAFBFAF2C972C9651
:100BD0006CAD7DAD8EAD9FAD2C970E94B42FA896C5
:100BE0006CAF7DAF8EAF9FAFA897A696AEADBFADF1
:100BF000A697BB87AA8710C088EC90E09D878C875A
:100C00008C859D850197F1F79D878C8700008A85EB
:100C10009B8501979B878A878A859B85009761F7CB
:100C20001DC06E817F81888599850E94B42FAC9606
:100C30006CAF7DAF8EAF9FAFAC97AA96EEADFFAD18
:100C4000AA97FB87EA878A859B859F878E878E85F3
:100C50009F850197F1F79F878E87000059C340E079
:100C600060E082E00E94090341E061E082E00E94CE
:100C7000090340E062E082E00E94090340E063E093
:100C800082E00E94090380E090E0A0EAB0E4888B53
:100C9000998BAA8BBB8B20E030E04AEF54E4688943
:100CA00079898A899B890E943530E0966CAF7DAF47
:100CB0008EAF9FAFE097E0968CAD9DADAEADBFAD72
:100CC000E0978C8B9D8BAE8BBF8B20E030E040E8B3
:100CD0005FE36C897D898E899F890E94AF2F88236D
:100CE0002CF481E090E0998F888F66C020E03FEF80
:100CF0004FE757E46C897D898E899F890E94303047
:100D0000882309F00CF446C020E030E040E251E4D2
:100D1000688979898A899B890E943530E4966CAF0D
:100D20007DAF8EAF9FAFE497E4968CAD9DADAEAD39
:100D3000BFADE49760968CAF9DAFAEAFBFAF60978D
:100D400060966CAD7DAD8EAD9FAD60970E94B42F67
:100D5000E8966CAF7DAF8EAF9FAFE897E696AEADED
:100D6000BFADE697B98FA88F10C088EC90E09B8F3D
:100D70008A8F8A8D9B8D0197F1F79B8F8A8F000058
:100D8000888D998D0197998F888F888D998D00977F
:100D900061F71DC06C897D898E899F890E94B42F5F
:100DA000EC966CAF7DAF8EAF9FAFEC97EA96EEAD51
:100DB000FFADEA97F98FE88F888D998D9D8F8C8F85
:100DC0008C8D9D8D0197F1F79D8F8C8F0000A0C2B7
:100DD00040E060E082E00E94090340E061E082E0E0
:100DE0000E94090341E062E082E00E94090340E0C2
:100DF00063E082E00E94090380E090E0A0EAB0E4B2
:100E00008E8F9F8FA8A3B9A320E030E04AEF54E46F
:100E10006E8D7F8D88A199A10E943530C458DF4F17
:100E2000688379838A839B83CC57D040C458DF4F33
:100E300088819981AA81BB81CC57D0408AA39BA38A
:100E4000ACA3BDA320E030E040E85FE36AA17BA152
:100E50008CA19DA10E94AF2F88232CF481E090E00B
:100E60009FA38EA372C020E03FEF4FE757E46AA133
:100E70007BA18CA19DA10E943030882309F00CF445
:100E80004EC020E030E040E251E46E8D7F8D88A1BD
:100E900099A10E943530C058DF4F688379838A83D7
:100EA0009B83C058D040C058DF4F88819981AA8168
:100EB000BB81C058D04064968CAF9DAFAEAFBFAF82
:100EC000649764966CAD7DAD8EAD9FAD64970E94C6
:100ED000B42FCC57DF4F688379838A839B83C458B0
:100EE000D040CC57DF4FA881B981C458D040BFA3B0
:100EF000AEA310C088EC90E099A788A788A599A513
:100F00000197F1F799A788A700008EA19FA10197EB
:100F10009FA38EA38EA19FA1009761F721C06AA114
:100F20007BA18CA19DA10E94B42FC857DF4F68837D
:100F300079838A839B83C858D040C857DF4FE881A4
:100F4000F981C858D040FFA3EEA38EA19FA19BA713
:100F50008AA78AA59BA50197F1F79BA78AA70000FE
:100F6000D7C140E060E082E00E94090340E061E018
:100F700082E00E94090340E062E082E00E940903EF
:100F800041E063E082E00E94090380E090E0A0EA93
:100F9000B0E48CA79DA7AEA7BFA720E030E04AEF42
:100FA00054E46CA57DA58EA59FA50E943530C4573D
:100FB000DF4F688379838A839B83CC58D040C457A2
:100FC000DF4F88819981AA81BB81CC58D04088AB02
:100FD00099ABAAABBBAB20E030E040E85FE368A987
:100FE00079A98AA99BA90E94AF2F88232CF481E0BC
:100FF00090E09DAB8CAB72C020E03FEF4FE757E431
:1010000068A979A98AA99BA90E943030882309F090
:101010000CF44EC020E030E040E251E46CA57DA528
:101020008EA59FA50E943530C057DF4F6883798316
:101030008A839B83C059D040C057DF4F88819981F4
:10104000AA81BB81C059D04068968CAF9DAFAEAF2E
:10105000BFAF689768966CAD7DAD8EAD9FAD68975C
:101060000E94B42FCC56DF4F688379838A839B8399
:10107000C459D040CC56DF4FA881B981C459D04063
:10108000BDABACAB10C088EC90E09FAB8EAB8EA933
:101090009FA90197F1F79FAB8EAB00008CA99DA98A
:1010A00001979DAB8CAB8CA99DA9009761F721C0DE
:1010B00068A979A98AA99BA90E94B42FC856DF4FB5
:1010C000688379838A839B83C859D040C856DF4F91
:1010D000E881F981C859D040FDABECAB8CA99DA942
:1010E00099AF88AF88AD99AD0197F1F799AF88AF07
:1010F00000000EC141E060E082E00E94090340E090
:1011000061E082E00E94090340E062E082E00E9428
:10111000090340E063E082E00E94090380E090E080
:10112000A0EAB0E48AAF9BAFACAFBDAF8E01025C6A
:101130001F4F20E030E04AEF54E46AAD7BAD8CAD48
:101140009DAD0E943530C456DF4F688379838A8312
:101150009B83CC59D040C456DF4F88819981AA81A6
:10116000BB81CC59D040F80180839183A283B383A3
:10117000CE01CE9620E030E040E85FE3DC016D91E7
:101180007D918D919C910E94AF2F88234CF4CE01CC
:101190008E5B9F4F21E030E0FC01318320839BC0B8
:1011A000CE01CE9620E03FEF4FE757E4DC016D9192
:1011B0007D918D919C910E943030882309F00CF430
:1011C0006DC020E030E040E251E46AAD7BAD8CAD13
:1011D0009DAD0E943530C056DF4F688379838A8386
:1011E0009B83C05AD040C056DF4F88819981AA8125
:1011F000BB81C05AD0406C968CAF9DAFAEAFBFAF35
:101200006C978E010E5B1F4F6C966CAD7DAD8EADF5
:101210009FAD6C970E94B42FCC55DF4F68837983C4
:101220008A839B83C45AD040CC55DF4FE881F98133
:10123000C45AD040D8011196FC93EE9326C0CE013B
:101240008C5B9F4F28EC30E0DC012D933C93CE016A
:101250008C5B9F4FFC01808191810197F1F79E018A
:101260002C5B3F4FD9018D939C930000CE018E5B88
:101270009F4F9E012E5B3F4FF9012081318121500C
:101280003109DC0111963C932E93CE018E5B9F4F6A
:10129000FC0180819181009791F639C08E010E5B2F
:1012A0001F4FCE01CE96DC016D917D918D919C9169
:1012B0000E94B42FC855DF4F688379838A839B834C
:1012C000C85AD040C855DF4F88819981C85AD0404C
:1012D000F80191838083CE018A5B9F4F9E012E5B34
:1012E0003F4FD9012D913C91FC0131832083CE01E8
:1012F0008A5B9F4FDC018D919C9111970197F1F7CB
:101300009E012A5B3F4FF90191838083000000001A
:101310000000C555DF4F0FB6F894DEBF0FBECDBF3E
:10132000DF91CF911F910F9108950F931F93CF934A
:10133000DF93CDB7DEB7C353D1400FB6F894DEBF0D
:101340000FBECDBF82E00E94EE0489838981882F81
:1013500090E0A0E0B0E08C309105A105B10519F056
:1013600010F00C94831284539F4CFC010C94872F33
:1013700041E060E082E00E94090340E061E082E039
:101380000E94090340E062E082E00E94090341E01C
:1013900063E082E00E94090380E090E0A0EAB0E40C
:1013A0008A839B83AC83BD8320E030E04AEF54E422
:1013B0006A817B818C819D810E943530CC55DF4FC5
:1013C000688379838A839B83C45AD040CC55DF4F8E
:1013D00088819981AA81BB81C45AD0408E839F8322
:1013E000A887B98720E030E040E85FE36E817F8125
:1013F000888599850E94AF2F88232CF481E090E0A6
:101400009B878A8776C020E03FEF4FE757E46E81E5
:101410007F81888599850E943030882309F00CF4FB
:1014200052C020E030E040E251E46A817B818C814F
:101430009D810E943530C855DF4F688379838A8348
:101440009B83C85AD040C855DF4F88819981AA81B3
:10145000BB81C85AD040C058DF4F88839983AA8384
:10146000BB83C058D040C058DF4F688179818A81E2
:101470009B81C058D0400E94B42FC455DF4F688371
:1014800079838A839B83CC5AD040C455DF4FA8818F
:10149000B981CC5AD040BB87AA8710C088EC90E0B5
:1014A0009D878C878C859D850197F1F79D878C871B
:1014B00000008A859B8501979B878A878A859B8503
:1014C000009761F721C06E817F81888599850E9490
:1014D000B42FC055DF4F688379838A839B83C05BB9
:1014E000D040C055DF4FE881F981C05BD040FB8719
:1014F000EA878A859B859F878E878E859F85019742
:10150000F1F79F878E8700000C94831241E060E022
:1015100082E00E94090340E061E082E00E9409034A
:1015200040E062E082E00E94090340E063E082E084
:101530000E94090380E090E0A0EAB0E4888B998BD8
:10154000AA8BBB8B20E030E04AEF54E468897989AC
:101550008A899B890E943530CC54DF4F6883798318
:101560008A839B83C45BD040CC54DF4F88819981B0
:10157000AA81BB81C45BD0408C8B9D8BAE8BBF8B13
:1015800020E030E040E85FE36C897D898E899F89A7
:101590000E94AF2F88232CF481E090E0998F888FF0
:1015A00076C020E03FEF4FE757E46C897D898E8954
:1015B0009F890E943030882309F00CF452C020E04B
:1015C00030E040E251E4688979898A899B890E94E8
:1015D0003530C854DF4F688379838A839B83C85B27
:1015E000D040C854DF4F88819981AA81BB81C85BF4
:1015F000D040CC57DF4F88839983AA83BB83C458DC
:10160000D040CC57DF4F688179818A819B81C45853
:10161000D0400E94B42FC454DF4F688379838A83FB
:101620009B83CC5BD040C454DF4FA881B981CC5B95
:10163000D040B98FA88F10C088EC90E09B8F8A8F24
:101640008A8D9B8D0197F1F79B8F8A8F0000888D83
:10165000998D0197998F888F888D998D009761F763
:1016600021C06C897D898E899F890E94B42FC054C6
:10167000DF4F688379838A839B83C05CD040C054EA
:10168000DF4FE881F981C05CD040F98FE88F888D09
:10169000998D9D8F8C8F8C8D9D8D0197F1F79D8FEE
:1016A0008C8F000030C741E060E082E00E940903B7
:1016B00041E061E082E00E94090340E062E082E0F4
:1016C0000E94090340E063E082E00E94090380E099
:1016D00090E0A0EAB0E48E8F9F8FA8A3B9A320E08A
:1016E00030E04AEF54E46E8D7F8D88A199A10E946D
:1016F0003530CC53DF4F688379838A839B83C45C06
:10170000D040CC53DF4F88819981AA81BB81C45CD2
:10171000D0408AA39BA3ACA3BDA320E030E040E867
:101720005FE36AA17BA18CA19DA10E94AF2F8823BA
:101730002CF481E090E09FA38EA376C020E03FEFE1
:101740004FE757E46AA17BA18CA19DA10E94303094
:10175000882309F00CF452C020E030E040E251E46C
:101760006E8D7F8D88A199A10E943530C853DF4FBF
:10177000688379838A839B83C85CD040C853DF4FDA
:1017800088819981AA81BB81C85CD040C857DF4F4E
:1017900088839983AA83BB83C858D040C857DF4F3A
:1017A000688179818A819B81C858D0400E94B42F7A
:1017B000C453DF4F688379838A839B83CC5CD0409A
:1017C000C453DF4FA881B981CC5CD040BFA3AEA386
:1017D00010C088EC90E099A788A788A599A50197E3
:1017E000F1F799A788A700008EA19FA101979FA359
:1017F0008EA38EA19FA1009761F721C06AA17BA152
:101800008CA19DA10E94B42FC053DF4F68837983C0
:101810008A839B83C05DD040C053DF4FE881F9814C
:10182000C05DD040FFA3EEA38EA19FA19BA78AA776
:101830008AA59BA50197F1F79BA78AA7000063C61D
:1018400040E060E082E00E94090341E061E082E064
:101850000E94090340E062E082E00E94090340E048
:1018600063E082E00E94090380E090E0A0EAB0E437
:101870008CA79DA7AEA7BFA720E030E04AEF54E4B5
:101880006CA57DA58EA59FA50E943530CC52DF4F5B
:10189000688379838A839B83C45DD040CC52DF4FB9
:1018A00088819981AA81BB81C45DD04088AB99AB06
:1018B000AAABBBAB20E030E040E85FE368A979A9C0
:1018C0008AA99BA90E94AF2F88232CF481E090E085
:1018D0009DAB8CAB76C020E03FEF4FE757E468A9A3
:1018E00079A98AA99BA90E943030882309F00CF4B9
:1018F00052C020E030E040E251E46CA57DA58EA509
:101900009FA50E943530C852DF4F688379838A8350
:101910009B83C85DD040C852DF4F88819981AA81DE
:10192000BB81C85DD040C457DF4F88839983AA83A9
:10193000BB83CC58D040C457DF4F688179818A81FE
:101940009B81CC58D0400E94B42FC452DF4F688393
:1019500079838A839B83CC5DD040C452DF4FA881BA
:10196000B981CC5DD040BDABACAB10C088EC90E091
:101970009FAB8EAB8EA99FA90197F1F79FAB8EAB62
:1019800000008CA99DA901979DAB8CAB8CA99DA94A
:10199000009761F721C068A979A98AA99BA90E942B
:1019A000B42FC052DF4F688379838A839B83C05EE4
:1019B000D040C052DF4FE881F981C05ED040FDAB1E
:1019C000ECAB8CA99DA999AF88AF88AD99AD019773
:1019D000F1F799AF88AF000096C540E060E082E083
:1019E0000E94090341E061E082E00E94090341E0B6
:1019F00062E082E00E94090340E063E082E00E942E
:101A0000090380E090E0A0EAB0E48AAF9BAFACAFFE
:101A1000BDAF8E01025C1F4F20E030E04AEF54E47E
:101A20006AAD7BAD8CAD9DAD0E943530CC51DF4FA2
:101A3000688379838A839B83C45ED040CC51DF4F17
:101A400088819981AA81BB81C45ED040F8018083DE
:101A50009183A283B383CE01CE9620E030E040E8AC
:101A60005FE3DC016D917D918D919C910E94AF2F80
:101A700088234CF4CE018E5B9F4F21E030E0FC01C7
:101A8000318320839FC0CE01CE9620E03FEF4FE709
:101A900057E4DC016D917D918D919C910E943030D5
:101AA000882309F00CF471C020E030E040E251E4FA
:101AB0006AAD7BAD8CAD9DAD0E943530C851DF4F16
:101AC000688379838A839B83C85ED040C851DF4F87
:101AD00088819981AA81BB81C85ED040C057DF4F01
:101AE00088839983AA83BB83C059D0408E010E5B43
:101AF0001F4FC057DF4F688179818A819B81C05910
:101B0000D0400E94B42FC451DF4F688379838A8309
:101B10009B83CC5ED040C451DF4FE881F981CC5E1D
:101B2000D040D8011196FC93EE9326C0CE018C5B79
:101B30009F4F28EC30E0DC012D933C93CE018C5B71
:101B40009F4FFC01808191810197F1F79E012C5BF1
:101B50003F4FD9018D939C930000CE018E5B9F4F28
:101B60009E012E5B3F4FF9012081318121503109C7
:101B7000DC0111963C932E93CE018E5B9F4FFC01AE
:101B800080819181009791F639C08E010E5B1F4FC5
:101B9000CE01CE96DC016D917D918D919C910E943C
:101BA000B42FC051DF4F688379838A839B83C05FE2
:101BB000D040C051DF4F88819981C05FD040F8018B
:101BC00091838083CE018A5B9F4F9E012E5B3F4FA6
:101BD000D9012D913C91FC0131832083CE018A5B98
:101BE0009F4FDC018D919C9111970197F1F79E0118
:101BF0002A5B3F4FF90191838083000084C440E059
:101C000060E082E00E94090340E061E082E00E941F
:101C1000090341E062E082E00E94090340E063E0E2
:101C200082E00E9409039E01285B3F4F80E090E024
:101C3000A0EAB0E4F90180839183A283B3838E018B
:101C4000045B1F4FCE01885B9F4F20E030E04AEFDE
:101C500054E4DC016D917D918D919C910E94353011
:101C6000CC50DF4F688379838A839B83C45FD040E5
:101C7000CC50DF4F88819981AA81BB81C45FD0405D
:101C8000F80180839183A283B383CE01845B9F4F4D
:101C900020E030E040E85FE3DC016D917D918D91C3
:101CA0009C910E94AF2F88234CF4CE01805B9F4F04
:101CB00021E030E0FC0131832083A5C0CE01845BAC
:101CC0009F4F20E03FEF4FE757E4DC016D917D919E
:101CD0008D919C910E943030882309F00CF475C0DE
:101CE000CE01885B9F4F20E030E040E251E4FC01F0
:101CF00060817181828193810E943530C850DF4FAD
:101D0000688379838A839B83C85FD040C850DF4F44
:101D100088819981AA81BB81C85FD040CC56DF4FB2
:101D200088839983AA83BB83C459D0408E01005B0A
:101D30001F4FCC56DF4F688179818A819B81C459BE
:101D4000D0400E94B42FC450DF4F688379838A83C8
:101D50009B83CC5FD040C450DF4FE881F981CC5FDA
:101D6000D040D8011196FC93EE9326C0CE018E5A36
:101D70009F4F28EC30E0DC012D933C93CE018E5A2E
:101D80009F4FFC01808191810197F1F79E012E5AAE
:101D90003F4FD9018D939C930000CE01805B9F4FF4
:101DA0009E01205B3F4FF901208131812150310993
:101DB000DC0111963C932E93CE01805B9F4FFC017A
:101DC00080819181009791F63AC08E01005B1F4F90
:101DD000CE01845B9F4FDC016D917D918D919C9133
:101DE0000E94B42FC050DF4F688379838A839B831E
:101DF000C050D140C050DF4F88819981C050D14040
:101E0000F80191838083CE018C5A9F4F9E01205B05
:101E10003F4FD9012D913C91FC0131832083CE01AC
:101E20008C5A9F4FDC018D919C9111970197F1F78E
:101E30009E012C5A3F4FF90191838083000063C3B8
:101E400040E060E082E00E94090340E061E082E05F
:101E50000E94090341E062E082E00E94090341E040
:101E600063E082E00E9409039E012A5A3F4F80E00E
:101E700090E0A0EAB0E4F90180839183A283B38368
:101E80008E01065A1F4FCE018A5A9F4F20E030E044
:101E90004AEF54E4DC016D917D918D919C910E94FB
:101EA0003530CC5FDE4F688379838A839B83C4504F
:101EB000D140CC5FDE4F88819981AA81BB81C4501B
:101EC000D140F80180839183A283B383CE01865AE7
:101ED0009F4F20E030E040E85FE3DC016D917D91B1
:101EE0008D919C910E94AF2F88234CF4CE01825A91
:101EF0009F4F21E030E0FC0131832083A5C0CE015B
:101F0000865A9F4F20E03FEF4FE757E4DC016D9189
:101F10007D918D919C910E943030882309F00CF4C2
:101F200075C0CE018A5A9F4F20E030E040E251E474
:101F3000FC0160817181828193810E943530C85F8C
:101F4000DE4F688379838A839B83C850D140C85F02
:101F5000DE4F88819981AA81BB81C850D140C85683
:101F6000DF4F88839983AA83BB83C859D0408E01F1
:101F7000025A1F4FC856DF4F688179818A819B8141
:101F8000C859D0400E94B42FC45FDE4F6883798364
:101F90008A839B83CC50D140C45FDE4FE881F981B6
:101FA000CC50D140D8011196FC93EE9326C0CE01BF
:101FB000805A9F4F28EC30E0DC012D933C93CE01FA
:101FC000805A9F4FFC01808191810197F1F79E011A
:101FD000205A3F4FD9018D939C930000CE01825A25
:101FE0009F4F9E01225A3F4FF9012081318121509C
:101FF0003109DC0111963C932E93CE01825A9F4FFA
:10200000FC0180819181009791F63AC08E01025ABD
:102010001F4FCE01865A9F4FDC016D917D918D91AE
:102020009C910E94B42FC05FDE4F688379838A83BE
:102030009B83C051D140C05FDE4F88819981C051E0
:10204000D140F80191838083CE018E599F4F9E012C
:10205000225A3F4FD9012D913C91FC0131832083BD
:10206000CE018E599F4FDC018D919C911197019764
:10207000F1F79E012E593F4FF901918380830000B3
:1020800042C240E060E082E00E94090340E061E07B
:1020900082E00E94090340E062E082E00E940903BE
:1020A00041E063E082E00E9409039E012C593F4F0A
:1020B00080E090E0A0EAB0E4F90180839183A283FC
:1020C000B3838E0108591F4FCE018C599F4F20E0DA
:1020D00030E04AEF54E4DC016D917D918D919C914B
:1020E0000E943530CC5EDE4F688379838A839B8380
:1020F000C451D140CC5EDE4F88819981AA81BB81D9
:10210000C451D140F80180839183A283B383CE016F
:1021100088599F4F20E030E040E85FE3DC016D919B
:102120007D918D919C910E94AF2F88234CF4CE011C
:1021300084599F4F21E030E0FC0131832083A5C00A
:10214000CE0188599F4F20E03FEF4FE757E4DC0175
:102150006D917D918D919C910E943030882309F082
:102160000CF475C0CE018C599F4F20E030E040E266
:1021700051E4FC0160817181828193810E9435303C
:10218000C85EDE4F688379838A839B83C851D140C0
:10219000C85EDE4F88819981AA81BB81C851D14038
:1021A000C456DF4F88839983AA83BB83CC59D04020
:1021B0008E0104591F4FC456DF4F688179818A818F
:1021C0009B81CC59D0400E94B42FC45EDE4F6883FF
:1021D00079838A839B83CC51D140C45EDE4FE881F2
:1021E000F981CC51D140D8011196FC93EE9326C0D1
:1021F000CE0182599F4F28EC30E0DC012D933C93B7
:10220000CE0182599F4FFC01808191810197F1F7A6
:102210009E0122593F4FD9018D939C930000CE011E
:1022200084599F4F9E0124593F4FF90120813181EC
:1022300021503109DC0111963C932E93CE01845933
:102240009F4FFC0180819181009791F63AC08E01E9
:1022500004591F4FCE0188599F4FDC016D917D912C
:102260008D919C910E94B42FC05EDE4F688379836C
:102270008A839B83C052D140C05EDE4F88819981A2
:10228000C052D140F80191838083CE0180599F4F85
:102290009E0124593F4FD9012D913C91FC0131837E
:1022A0002083CE0180599F4FDC018D919C91119725
:1022B0000197F1F79E0120593F4FF90191838083E7
:1022C000000021C141E060E082E00E94090340E09B
:1022D00061E082E00E94090340E062E082E00E9447
:1022E000090341E063E082E00E9409039E012E5849
:1022F0003F4F80E090E0A0EAB0E4F9018083918351
:10230000A283B3838E010A581F4FCE018E589F4F70
:1023100020E030E04AEF54E4DC016D917D918D9135
:102320009C910E943530CC5DDE4F688379838A832F
:102330009B83C452D140CC5DDE4F88819981AA81B4
:10234000BB81C452D140F80180839183A283B383BF
:10235000CE018A589F4F20E030E040E85FE3DC0187
:102360006D917D918D919C910E94AF2F88234CF4AB
:10237000CE0186589F4F21E030E0FC01318320835D
:10238000A5C0CE018A589F4F20E03FEF4FE757E4AA
:10239000DC016D917D918D919C910E94303088235C
:1023A00009F00CF475C0CE018E589F4F20E030E04C
:1023B00040E251E4FC0160817181828193810E943D
:1023C0003530C85DDE4F688379838A839B83C8522A
:1023D000D140C85DDE4F88819981AA81BB81C852F6
:1023E000D140C056DF4F88839983AA83BB83C05AEC
:1023F000D0408E0106581F4FC056DF4F688179814B
:102400008A819B81C05AD0400E94B42FC45DDE4FA8
:10241000688379838A839B83CC52D140C45DDE4F2D
:10242000E881F981CC52D140D8011196FC93EE930A
:1024300026C0CE0184589F4F28EC30E0DC012D935C
:102440003C93CE0184589F4FFC018081918101977C
:10245000F1F79E0124583F4FD9018D939C930000C2
:10246000CE0186589F4F9E0126583F4FF90120818B
:10247000318121503109DC0111963C932E93CE011C
:1024800086589F4FFC0180819181009791F63AC058
:102490008E0106581F4FCE018A589F4FDC016D9167
:1024A0007D918D919C910E94B42FC05DDE4F688319
:1024B00079838A839B83C053D140C05DDE4F88817E
:1024C0009981C053D140F80191838083CE01825815
:1024D0009F4F9E0126583F4FD9012D913C91FC0101
:1024E00031832083CE0182589F4FDC018D919C91D6
:1024F00011970197F1F79E0122583F4FF9019183FF
:102500008083000000000000CD5CDE4F0FB6F89421
:10251000DEBF0FBECDBFDF91CF911F910F91089508
:10252000CF93DF93CDB7DEB7C858D1090FB6F89473
:10253000DEBF0FBECDBF41E061E081E00E94080236
:1025400041E063E081E00E94080241E062E081E056
:102550000E94080260EF80E00E94740480E090E036
:10256000A8ECB2E48BA79CA7ADA7BEA720E030E003
:102570004AEF54E46BA57CA58DA59EA50E9435303D
:102580002D966CAF7DAF8EAF9FAF2D972D968CADF6
:102590009DADAEADBFAD2D978FA798ABA9ABBAAB34
:1025A00020E030E040E85FE36FA578A989A99AA907
:1025B0000E94AF2F88232CF481E090E09CAB8BAB82
:1025C00066C020E03FEF4FE757E46FA578A989A9DF
:1025D0009AA90E943030882309F00CF446C020E00C
:1025E00030E040E251E46BA57CA58DA59EA50E943C
:1025F000353061966CAF7DAF8EAF9FAF61976196BE
:102600008CAD9DADAEADBFAD619729968CAF9DAF42
:10261000AEAFBFAF299729966CAD7DAD8EAD9FADA6
:1026200029970E94B42F65966CAF7DAF8EAF9FAF98
:1026300065976396AEADBFAD6397BCABABAB10C057
:1026400088EC90E09EAB8DAB8DA99EA90197F1F728
:102650009EAB8DAB00008BA99CA901979CAB8BAB6B
:102660008BA99CA9009761F71DC06FA578A989A9BE
:102670009AA90E94B42F69966CAF7DAF8EAF9FAFC1
:10268000699767968EAD9FAD67979CAB8BAB8BA917
:102690009CA998AF8FAB8FA998AD0197F1F798AF30
:1026A0008FAB000080E20E94661580E20E946615F2
:1026B00080E80E94661581E080933C0180E090E014
:1026C000A0E8BFE38D8F9E8FAF8FB8A320E030E0EE
:1026D0004AEF54E46D8D7E8D8F8D98A10E94353028
:1026E0006D966CAF7DAF8EAF9FAF6D976D968CADD5
:1026F0009DADAEADBFAD6D9789A39AA3ABA3BCA3AF
:1027000020E030E040E85FE369A17AA18BA19CA1C1
:102710000E94AF2F88232CF481E090E09EA38DA32C
:1027200066C020E03FEF4FE757E469A17AA18BA193
:102730009CA10E943030882309F00CF446C020E0B0
:1027400030E040E251E46D8D7E8D8F8D98A10E9426
:102750003530A1966CAF7DAF8EAF9FAFA197A1969C
:102760008CAD9DADAEADBFADA19725968CAF9DAFA5
:10277000AEAFBFAF259725966CAD7DAD8EAD9FAD4D
:1027800025970E94B42FA5966CAF7DAF8EAF9FAFFB
:10279000A597A396AEADBFADA397BEA3ADA310C042
:1027A00088EC90E098A78FA38FA198A50197F1F7E7
:1027B00098A78FA300008DA19EA101979EA38DA332
:1027C0008DA19EA1009761F71DC069A17AA18BA17F
:1027D0009CA10E94B42FA9966CAF7DAF8EAF9FAF26
:1027E000A997A7968EAD9FADA7979EA38DA38DA108
:1027F0009EA19AA789A789A59AA50197F1F79AA7FB
:1028000089A700008FE00E94661580E090E0A0E8B4
:10281000BFE38F87988BA98BBA8B20E030E04AEF1B
:1028200054E46F85788989899A890E943530AD96FC
:102830006CAF7DAF8EAF9FAFAD97AD968CAD9DADBC
:10284000AEADBFADAD978B8B9C8BAD8BBE8B20E0BF
:1028500030E040E85FE36B897C898D899E890E9426
:10286000AF2F88232CF481E090E0988F8F8B66C087
:1028700020E03FEF4FE757E46B897C898D899E8983
:102880000E943030882309F00CF446C020E030E08C
:1028900040E251E46F85788989899A890E943530B0
:1028A000E1966CAF7DAF8EAF9FAFE197E1968CADB7
:1028B0009DADAEADBFADE19721968CAF9DAFAEAFF4
:1028C000BFAF219721966CAD7DAD8EAD9FAD2197A9
:1028D0000E94B42FE5966CAF7DAF8EAF9FAFE597AA
:1028E000E396AEADBFADE397B88FAF8B10C088EC69
:1028F00090E09A8F898F898D9A8D0197F1F79A8F41
:10290000898F00008F89988D0197988F8F8B8F8981
:10291000988D009761F71DC06B897C898D899E8990
:102920000E94B42FE9966CAF7DAF8EAF9FAFE99751
:10293000E7968EAD9FADE797988F8F8B8F89988D97
:102940009C8F8B8F8B8D9C8D0197F1F79C8F8B8F3C
:10295000000081E00E94661580E090E0A0E0B0E415
:1029600089839A83AB83BC8320E030E04AEF54E450
:1029700069817A818B819C810E943530ED966CAFA4
:102980007DAF8EAF9FAFED97ED968CAD9DADAEADAB
:10299000BFADED978D839E83AF83B88720E030E095
:1029A00040E85FE36D817E818F8198850E94AF2F23
:1029B00088232CF481E090E09A8789876EC020E01C
:1029C0003FEF4FE757E46D817E818F8198850E94AC
:1029D0003030882309F00CF44AC020E030E040E2B7
:1029E00051E469817A818B819C810E943530C35882
:1029F000DF4F688379838A839B83CD57D040C35848
:102A0000DF4F88819981AA81BB81CD57D04089AFA2
:102A10009AAFABAFBCAF69AD7AAD8BAD9CAD0E9448
:102A2000B42FCF57DF4F688379838A839B83C15844
:102A3000D040CF57DF4FA881B981C158D040BA8765
:102A4000A98710C088EC90E09C878B878B859C853C
:102A50000197F1F79C878B87000089859A850197FC
:102A60009A87898789859A85009761F721C06D814A
:102A70007E818F8198850E94B42FCB57DF4F68836A
:102A800079838A839B83C558D040CB57DF4F888199
:102A90009981C558D0409A87898789859A859E876C
:102AA0008D878D859E850197F1F79E878D87000024
:102AB00086E00E9466150000C857DF4F0FB6F894F5
:102AC000DEBF0FBECDBFDF91CF910895CF93DF93CF
:102AD000CDB7DEB7C958D1090FB6F894DEBF0FBE27
:102AE000CDBF89AF40E061E081E00E94090340E092
:102AF00063E081E00E94090341E062E081E00E941E
:102B0000090389AD82958F708170482F64E080E061
:102B10000E94090389AD8295869587708170482F40
:102B200065E080E00E94090389AD829586958695CF
:102B300083708170482F66E080E00E94090389ADB0
:102B4000881F8827881F482F67E080E00E940903BC
:102B500080E090E0A0E8BFE389839A83AB83BC83E5
:102B600020E030E04AEF54E469817A818B819C81D6
:102B70000E9435302E966CAF7DAF8EAF9FAF2E97F3
:102B80002E968CAD9DADAEADBFAD2E978D839E8341
:102B9000AF83B88720E030E040E85FE36D817E815D
:102BA0008F8198850E94AF2F88232CF481E090E0DC
:102BB0009A87898762C020E03FEF4FE757E46D8135
:102BC0007E818F8198850E943030882309F00CF433
:102BD00042C020E030E040E251E469817A818B819B
:102BE0009C810E94353062966CAF7DAF8EAF9FAFF7
:102BF000629762968CAD9DADAEADBFAD62978AAF68
:102C00009BAFACAFBDAF6AAD7BAD8CAD9DAD0E944F
:102C1000B42F66966CAF7DAF8EAF9FAF669764960C
:102C2000AEADBFAD6497BA87A98710C088EC90E0BD
:102C30009C878B878B859C850197F1F79C878B8779
:102C4000000089859A8501979A87898789859A8561
:102C5000009761F71DC06D817E818F8198850E94EC
:102C6000B42F6A966CAF7DAF8EAF9FAF6A976896B0
:102C70008EAD9FAD68979A87898789859A859E874B
:102C80008D878D859E850197F1F79E878D87000042
:102C900040E062E081E00E94090380913C018130C4
:102CA00009F024C280E090E0A0E8BFE38BA79CA7D6
:102CB000ADA7BEA720E030E04AEF54E46BA57CA5A9
:102CC0008DA59EA50E9435306E966CAF7DAF8EAF00
:102CD0009FAF6E976E968CAD9DADAEADBFAD6E974E
:102CE0008FA798ABA9ABBAAB20E030E040E85FE338
:102CF0006FA578A989A99AA90E94AF2F88232CF4DF
:102D000081E090E09CAB8BAB66C020E03FEF4FE7EB
:102D100057E46FA578A989A99AA90E943030882321
:102D200009F00CF446C020E030E040E251E46BA52D
:102D30007CA58DA59EA50E943530A2966CAF7DAF77
:102D40008EAF9FAFA297A2968CAD9DADAEADBFAD3D
:102D5000A2972A968CAF9DAFAEAFBFAF2A972A96A7
:102D60006CAD7DAD8EAD9FAD2A970E94B42FA69617
:102D70006CAF7DAF8EAF9FAFA697A496AEADBFAD43
:102D8000A497BCABABAB10C088EC90E09EAB8DAB16
:102D90008DA99EA90197F1F79EAB8DAB00008BA981
:102DA0009CA901979CAB8BAB8BA99CA9009761F761
:102DB0001DC06FA578A989A99AA90E94B42FAA96C7
:102DC0006CAF7DAF8EAF9FAFAA97A8968EAD9FAD2B
:102DD000A8979CAB8BAB8BA99CA998AF8FAB8FA905
:102DE00098AD0197F1F798AF8FAB000041E062E03A
:102DF00081E00E94090389AD8170482F64E080E082
:102E00000E94090389AD86958170482F65E080E0B6
:102E10000E94090389AD869586958170482F66E0EA
:102E200080E00E94090389AD86958695869581701C
:102E3000482F67E080E00E94090380E090E0A0E86E
:102E4000BFE38D8F9E8FAF8FB8A320E030E04AEFB5
:102E500054E46D8D7E8D8F8D98A10E943530AE9695
:102E60006CAF7DAF8EAF9FAFAE97AE968CAD9DAD84
:102E7000AEADBFADAE9789A39AA3ABA3BCA320E030
:102E800030E040E85FE369A17AA18BA19CA10E9498
:102E9000AF2F88232CF481E090E09EA38DA366C021
:102EA00020E03FEF4FE757E469A17AA18BA19CA1F5
:102EB0000E943030882309F00CF446C020E030E056
:102EC00040E251E46D8D7E8D8F8D98A10E9435304A
:102ED000E2966CAF7DAF8EAF9FAFE297E2968CAD7E
:102EE0009DADAEADBFADE29726968CAF9DAFAEAFB8
:102EF000BFAF269726966CAD7DAD8EAD9FAD269764
:102F00000E94B42FE6966CAF7DAF8EAF9FAFE69771
:102F1000E496AEADBFADE497BEA3ADA310C088EC00
:102F200090E098A78FA38FA198A50197F1F798A794
:102F30008FA300008DA19EA101979EA38DA38DA1BB
:102F40009EA1009761F71DC069A17AA18BA19CA1E8
:102F50000E94B42FEA966CAF7DAF8EAF9FAFEA9719
:102F6000E8968EAD9FADE8979EA38DA38DA19EA1FF
:102F70009AA789A789A59AA50197F1F79AA789A782
:102F8000000040E062E081E00E94090380E090E000
:102F9000A0E0B0E48F87988BA98BBA8B20E030E05B
:102FA0004AEF54E46F85788989899A890E9435307F
:102FB000EE966CAF7DAF8EAF9FAFEE97EE968CAD79
:102FC0009DADAEADBFADEE978B8B9C8BAD8BBE8BAD
:102FD00020E030E040E85FE36B897C898D899E8941
:102FE0000E94AF2F88232CF481E090E0988F8F8B84
:102FF00072C020E03FEF4FE757E46B897C898D89F1
:103000009E890E943030882309F00CF44EC020E0E5
:1030100030E040E251E46F85788989899A890E947D
:103020003530C258DF4F688379838A839B83CE57BC
:10303000D040C258DF4F88819981AA81BB81CE5789
:10304000D04022968CAF9DAFAEAFBFAF22972296F5
:103050006CAD7DAD8EAD9FAD22970E94B42FCE5743
:10306000DF4F688379838A839B83C258D040CE57D1
:10307000DF4FA881B981C258D040B88FAF8B10C044
:1030800088EC90E09A8F898F898D9A8D0197F1F75E
:103090009A8F898F00008F89988D0197988F8F8BD9
:1030A0008F89988D009761F721C06B897C898D8904
:1030B0009E890E94B42FCA57DF4F688379838A8321
:1030C0009B83C658D040CA57DF4F88819981C65824
:1030D000D040988F8F8B8F89988D9C8F8B8F8B8D05
:1030E0009C8D0197F1F79C8F8B8F00000000C757D4
:1030F000DF4F0FB6F894DEBF0FBECDBFDF91CF918B
:103100000895CF93DF93CDB7DEB7C958D1090FB675
:10311000F894DEBF0FBECDBF89AF41E061E081E032
:103120000E94090340E063E081E00E94090341E05E
:1031300062E081E00E94090389AD82958F70817001
:10314000482F64E080E00E94090389AD829586954E
:1031500087708170482F65E080E00E94090389AD87
:1031600082958695869583708170482F66E080E011
:103170000E94090389AD881F8827881F482F67E0B0
:1031800080E00E94090380E090E0A0E8BFE38BA705
:103190009CA7ADA7BEA720E030E04AEF54E46BA5A2
:1031A0007CA58DA59EA50E9435302E966CAF7DAF77
:1031B0008EAF9FAF2E972E968CAD9DADAEADBFADB1
:1031C0002E978FA798ABA9ABBAAB20E030E040E8D0
:1031D0005FE36FA578A989A99AA90E94AF2F8823D8
:1031E0002CF481E090E09CAB8BAB66C020E03FEF1D
:1031F0004FE757E46FA578A989A99AA90E943030B2
:10320000882309F00CF446C020E030E040E251E4AD
:103210006BA57CA58DA59EA50E94353062966CAFEE
:103220007DAF8EAF9FAF629762968CAD9DADAEAD18
:10323000BFAD62972A968CAF9DAFAEAFBFAF2A9756
:103240002A966CAD7DAD8EAD9FAD2A970E94B42FAE
:1032500066966CAF7DAF8EAF9FAF66976496AEAD4E
:10326000BFAD6497BCABABAB10C088EC90E09EAB3D
:103270008DAB8DA99EA90197F1F79EAB8DAB000098
:103280008BA99CA901979CAB8BAB8BA99CA90097A0
:1032900061F71DC06FA578A989A99AA90E94B42FCA
:1032A0006A966CAF7DAF8EAF9FAF6A9768968EAD12
:1032B0009FAD68979CAB8BAB8BA99CA998AF8FAB4C
:1032C0008FA998AD0197F1F798AF8FAB000040E060
:1032D00062E081E00E94090380E090E0A0E8BFE3A3
:1032E0008D8F9E8FAF8FB8A320E030E04AEF54E47B
:1032F0006D8D7E8D8F8D98A10E9435306E966CAF4E
:103300007DAF8EAF9FAF6E976E968CAD9DADAEAD1F
:10331000BFAD6E9789A39AA3ABA3BCA320E030E016
:1033200040E85FE369A17AA18BA19CA10E94AF2F25
:1033300088232CF481E090E09EA38DA366C020E05A
:103340003FEF4FE757E469A17AA18BA19CA10E94AE
:103350003030882309F00CF446C020E030E040E231
:1033600051E46D8D7E8D8F8D98A10E943530A2968F
:103370006CAF7DAF8EAF9FAFA297A2968CAD9DAD87
:10338000AEADBFADA29726968CAF9DAFAEAFBFAF2F
:10339000269726966CAD7DAD8EAD9FAD26970E948B
:1033A000B42FA6966CAF7DAF8EAF9FAFA697A496B5
:1033B000AEADBFADA497BEA3ADA310C088EC90E0A6
:1033C00098A78FA38FA198A50197F1F798A78FA32E
:1033D00000008DA19EA101979EA38DA38DA19EA10A
:1033E000009761F71DC069A17AA18BA19CA10E94E1
:1033F000B42FAA966CAF7DAF8EAF9FAFAA97A89659
:103400008EAD9FADA8979EA38DA38DA19EA19AA7D7
:1034100089A789A59AA50197F1F79AA789A700001E
:1034200041E062E081E00E94090389AD8170482F8C
:1034300064E080E00E94090389AD86958170482F81
:1034400065E080E00E94090389AD869586958170CC
:10345000482F66E080E00E94090389AD8695869535
:1034600086958170482F67E080E00E94090380E024
:1034700090E0A0E8BFE38F87988BA98BBA8B20E000
:1034800030E04AEF54E46F85788989899A890E94EF
:103490003530AE966CAF7DAF8EAF9FAFAE97AE9628
:1034A0008CAD9DADAEADBFADAE978B8B9C8BAD8B18
:1034B000BE8B20E030E040E85FE36B897C898D893A
:1034C0009E890E94AF2F88232CF481E090E0988F92
:1034D0008F8B66C020E03FEF4FE757E46B897C8914
:1034E0008D899E890E943030882309F00CF446C0F3
:1034F00020E030E040E251E46F85788989899A893B
:103500000E943530E2966CAF7DAF8EAF9FAFE297F1
:10351000E2968CAD9DADAEADBFADE29722968CAF7D
:103520009DAFAEAFBFAF229722966CAD7DAD8EAD95
:103530009FAD22970E94B42FE6966CAF7DAF8EAF01
:103540009FAFE697E496AEADBFADE497B88FAF8B73
:1035500010C088EC90E09A8F898F898D9A8D0197A1
:10356000F1F79A8F898F00008F89988D0197988F36
:103570008F8B8F89988D009761F71DC06B897C892F
:103580008D899E890E94B42FEA966CAF7DAF8EAF75
:103590009FAFEA97E8968EAD9FADE897988F8F8B97
:1035A0008F89988D9C8F8B8F8B8D9C8D0197F1F7D8
:1035B0009C8F8B8F000040E062E081E00E94090355
:1035C00080E090E0A0E0B0E489839A83AB83BC8381
:1035D00020E030E04AEF54E469817A818B819C815C
:1035E0000E943530EE966CAF7DAF8EAF9FAFEE97F9
:1035F000EE968CAD9DADAEADBFADEE978D839E8347
:10360000AF83B88720E030E040E85FE36D817E81E2
:103610008F8198850E94AF2F88232CF481E090E061
:103620009A8789876EC020E03FEF4FE757E46D81AE
:103630007E818F8198850E943030882309F00CF4B8
:103640004AC020E030E040E251E469817A818B8118
:103650009C810E943530C258DF4F688379838A830A
:103660009B83CE57D040C258DF4F88819981AA8171
:10367000BB81CE57D0408AAF9BAFACAFBDAF6AAD78
:103680007BAD8CAD9DAD0E94B42FCE57DF4F6883CC
:1036900079838A839B83C258D040CE57DF4FA8815D
:1036A000B981C258D040BA87A98710C088EC90E091
:1036B0009C878B878B859C850197F1F79C878B87EF
:1036C000000089859A8501979A87898789859A85D7
:1036D000009761F721C06D817E818F8198850E945E
:1036E000B42FCA57DF4F688379838A839B83C65878
:1036F000D040CA57DF4F88819981C658D0409A87F9
:10370000898789859A859E878D878D859E85019776
:10371000F1F79E878D8700000000C757DF4F0FB677
:10372000F894DEBF0FBECDBFDF91CF910895CF9348
:10373000DF9300D00F92CDB7DEB79B838A831982C7
:103740000EC08981882F90E02A813B81820F931FD0
:10375000FC0180810E94811889818F5F8983898122
:10376000882F90E02A813B81820F931FFC0180818A
:10377000882339F7000000000F900F900F90DF9121
:10378000CF910895CF93DF9300D00F92CDB7DEB7DE
:103790008A836B838A81882319F48B81898306C08D
:1037A0008A81813019F48B81805C8983898180587A
:1037B0000E94661500000F900F900F90DF91CF913F
:1037C00008950F931F93CF93DF93CDB7DEB7A397E1
:1037D0000FB6F894DEBF0FBECDBF688B798B8A8B96
:1037E0009B8B1F821E8228E0CE010896DC01E22F0F
:1037F0001D92EA95E9F7198288899989AA89BB8976
:103800000097A105B10521F480E30E94811896C0BC
:1038100088899989AA89BB890097A105B10509F012
:103820000CF46EC048C0288939894A895B89288F81
:10383000398F4A8F5B8F0AE010E020E030E0688D1E
:10384000798D8A8D9B8DA90198010E94682F6C8FBC
:103850007D8F8E8F9F8F8C8D9D8DAE8DBF8D8A833A
:103860009B83AC83BD838981882F90E04A819E0130
:103870002A5F3F4F820F931FDC014C9328893989BF
:103880004A895B8928A339A34AA35BA30AE010E015
:1038900020E030E068A179A18AA19BA1A90198014B
:1038A0000E94682FDA01C901888B998BAA8BBB8B88
:1038B00089818F5F898388899989AA89BB890097C3
:1038C000A105B10509F0AFCF89818150898310C06E
:1038D0008981882F90E09E012A5F3F4F820F931FBE
:1038E000DC018C91805D0E948118898181508983DF
:1038F0008981882369F78E81805D0E9481181EC0AE
:1039000088899989AA89BB89BB23C4F48DE20E9466
:10391000811888899989AA89BB8922273327A90117
:10392000281B390B4A0B5B0B2C8B3D8B4E8B5F8B13
:103930006C897D898E899F890E94E11B0000A39676
:103940000FB6F894DEBF0FBECDBFDF91CF911F91B0
:103950000F910895CF93DF9300D000D000D00F9245
:10396000CDB7DEB79C838B836D834E832F836F81AE
:103970008E810E94C21B8D810E9481188D81880FCB
:10398000880F880F8A838A8180648A838A810E9453
:10399000661519820EC08981882F90E02B813C81A9
:1039A000820F931FFC0180810E94811889818F5FA3
:1039B00089838981873079F370F382E00E946615EC
:1039C000000027960FB6F894DEBF0FBECDBFDF9183
:1039D000CF910895CF93DF93CDB7DEB76C970FB635
:1039E000F894DEBF0FBECDBF8FEF8C8380E091E0F7
:1039F0009E838D8382E093E098878F8384E095E0B7
:103A00009A87898786E097E09C878B8780E1E8E644
:103A1000F0E0DE011D9601900D928A95E1F71A8281
:103A200067C08A81882F90E09E012B5F3F4F820FF5
:103A3000931FFC01808140E0682F83E00E9409030E
:103A400019823FC08981882F90E09E01275F3F4FF8
:103A5000820F931FFC018081682F83E00E940A047B
:103A60008B838B81882351F58981282F30E08A81CF
:103A7000882F90E0220F331F220F331FAE014F5FBC
:103A80005F4F240F351F820F931F0C96FC0180811E
:103A90008C830FC08981882F90E09E01275F3F4F64
:103AA000820F931FFC018081682F83E00E940A042B
:103AB0008B838B81882371F38C8120C089818F5FF8
:103AC00089838981833009F008F4BCCF8A81882FEB
:103AD00090E09E012B5F3F4F820F931FFC0180817E
:103AE00041E0682F83E00E9409038A818F5F8A8307
:103AF0008A81833009F008F494CF8C816C960FB6DC
:103B0000F894DEBF0FBECDBFDF91CF910895CF9364
:103B1000DF930F92CDB7DEB741E060E083E00E9413
:103B2000080241E061E083E00E94080241E062E0B7
:103B300083E00E94080241E063E083E00E94080203
:103B400040E064E083E00E94080240E065E083E03A
:103B50000E94080240E066E083E00E94080240E024
:103B600067E083E00E9408026FEF83E00E94B104E7
:103B700041E064E081E00E94080241E065E081E00C
:103B80000E94080241E066E081E00E9408020E9473
:103B90009012198203C00E94D71D898389818823CE
:103BA000D1F380E090E00F90DF91CF9108950F93D3
:103BB0001F93CF93DF93CDB7DEB7CB5BD1400FB66A
:103BC000F894DEBF0FBECDBF60E080E00E94C21B54
:103BD00088E790E00E94971B80E090E0A8ECB2E4B8
:103BE0008E8F9F8FA8A3B9A320E030E04AEF54E462
:103BF0006E8D7F8D88A199A10E943530C451DF4F11
:103C0000688379838A839B83CC5ED040C451DF4F25
:103C100088819981AA81BB81CC5ED0408AA39BA375
:103C2000ACA3BDA320E030E040E85FE36AA17BA144
:103C30008CA19DA10E94AF2F88232CF481E090E0FD
:103C40009FA38EA376C020E03FEF4FE757E46AA121
:103C50007BA18CA19DA10E943030882309F00CF437
:103C600052C020E030E040E251E46E8D7F8D88A1AB
:103C700099A10E943530C051DF4F688379838A83D0
:103C80009B83C05FD040C051DF4F88819981AA815A
:103C9000BB81C05FD040C054DF4F88839983AA8323
:103CA000BB83C05CD040C054DF4F688179818A817A
:103CB0009B81C05CD0400E94B42FCC50DF4F688302
:103CC00079838A839B83C45FD040CC50DF4FA88127
:103CD000B981C45FD040BFA3AEA310C088EC90E010
:103CE00099A788A788A599A50197F1F799A788A70B
:103CF00000008EA19FA101979FA38EA38EA19FA1DB
:103D0000009761F721C06AA17BA18CA19DA10E94AF
:103D1000B42FC850DF4F688379838A839B83C85F41
:103D2000D040C850DF4FE881F981C85FD040FFA381
:103D3000EEA38EA19FA19BA78AA78AA59BA5019709
:103D4000F1F79BA78AA7000081E00E94661588E72B
:103D500090E00E94971B80E090E0A8ECB2E4888B92
:103D6000998BAA8BBB8B20E030E04AEF54E4688942
:103D700079898A899B890E943530C450DF4F6883D6
:103D800079838A839B83CC5FD040C450DF4F888186
:103D90009981AA81BB81CC5FD0408C8B9D8BAE8BEF
:103DA000BF8B20E030E040E85FE36C897D898E893D
:103DB0009F890E94AF2F88232CF481E090E0998F97
:103DC000888F76C020E03FEF4FE757E46C897D890C
:103DD0008E899F890E943030882309F00CF452C0EC
:103DE00020E030E040E251E4688979898A899B8942
:103DF0000E943530C050DF4F688379838A839B836C
:103E0000C050D140C050DF4F88819981AA81BB81C9
:103E1000C050D140C454DF4F88839983AA83BB83A9
:103E2000CC5BD040C454DF4F688179818A819B810B
:103E3000CC5BD0400E94B42FCC5FDE4F6883798387
:103E40008A839B83C450D140CC5FDE4FA881B98167
:103E5000C450D140B98FA88F10C088EC90E09B8FE0
:103E60008A8F8A8D9B8D0197F1F79B8F8A8F000037
:103E7000888D998D0197998F888F888D998D00975E
:103E800061F721C06C897D898E899F890E94B42F3A
:103E9000C85FDE4F688379838A839B83C850D14093
:103EA000C85FDE4FE881F981C850D140F98FE88FB3
:103EB000888D998D9D8F8C8F8C8D9D8D0197F1F7BD
:103EC0009D8F8C8F000081E00E94661580E090E05D
:103ED000A8ECB2E48A839B83AC83BD8320E030E00E
:103EE0004AEF54E46A817B818C819D810E94353048
:103EF000C45FDE4F688379838A839B83CC50D14033
:103F0000C45FDE4F88819981AA81BB81CC50D140AA
:103F10008E839F83A887B98720E030E040E85FE385
:103F20006E817F81888599850E94AF2F88232CF42C
:103F300081E090E09B878A8776C020E03FEF4FE7E3
:103F400057E46E817F81888599850E94303088236F
:103F500009F00CF452C020E030E040E251E46A8104
:103F60007B818C819D810E943530C05FDE4F6883EC
:103F700079838A839B83C051D140C05FDE4F8881A3
:103F80009981AA81BB81C051D140C854DF4F888339
:103F90009983AA83BB83C85BD040C854DF4F688134
:103FA00079818A819B81C85BD0400E94B42FCC5E0E
:103FB000DE4F688379838A839B83C451D140CC5E72
:103FC000DE4FA881B981C451D140BB87AA8710C0F8
:103FD00088EC90E09D878C878C859D850197F1F713
:103FE0009D878C8700008A859B8501979B878A87A0
:103FF0008A859B85009761F721C06E817F818885C6
:1040000099850E94B42FC85EDE4F688379838A83C6
:104010009B83C851D140C85EDE4FE881F981C85109
:10402000D140FB87EA878A859B859F878E878E850F
:104030009F850197F1F79F878E87000086E890E0C3
:104040000E94971B60E081E00E94C21B86E990E01D
:104050000E94971B0E94AB2D898381E00E94661508
:1040600060E080E00E94C21B8981882F90E083304D
:10407000910509F440C68330910519F014F00C94B1
:10408000C4298130910531F08230910509F4EAC2EA
:104090000C94C4290E94E12A813009F0C4C080EA4E
:1040A00090E00E94971B80E090E0A8ECB2E48CA71F
:1040B0009DA7AEA7BFA720E030E04AEF54E46CA56F
:1040C0007DA58EA59FA50E943530C45EDE4F688316
:1040D00079838A839B83CC51D140C45EDE4F888133
:1040E0009981AA81BB81CC51D14088AB99ABAAAB55
:1040F000BBAB20E030E040E85FE368A979A98AA97A
:104100009BA90E94AF2F88232CF481E090E09DAB07
:104110008CAB76C020E03FEF4FE757E468A979A960
:104120008AA99BA90E943030882309F00CF452C060
:1041300020E030E040E251E46CA57DA58EA59FA56E
:104140000E943530C05EDE4F688379838A839B830B
:10415000C052D140C05EDE4F88819981AA81BB8167
:10416000C052D140CC53DF4F88839983AA83BB834D
:10417000C45CD040CC53DF4F688179818A819B81B8
:10418000C45CD0400E94B42FCC5DDE4F688379833D
:104190008A839B83C452D140CC5DDE4FA881B98114
:1041A000C452D140BDABACAB10C088EC90E09FAB2B
:1041B0008EAB8EA99FA90197F1F79FAB8EAB000044
:1041C0008CA99DA901979DAB8CAB8CA99DA900974B
:1041D00061F721C068A979A98AA99BA90E94B42F77
:1041E000C85DDE4F688379838A839B83C852D14040
:1041F000C85DDE4FE881F981C852D140FDABECAB20
:104200008CA99DA999AF88AF88AD99AD0197F1F7B9
:1042100099AF88AF000081E00E9466150E94602D72
:1042200080E00C94D52A8BEA90E00E94971B9E01B7
:10423000285B3F4F80E090E0A8ECB2E4F901808376
:104240009183A283B3838E01045B1F4FCE01885BF1
:104250009F4F20E030E04AEF54E4DC016D917D9106
:104260008D919C910E943530C45DDE4F68837983C7
:104270008A839B83CC52D140C45DDE4F8881998173
:10428000AA81BB81CC52D140F80180839183A28363
:10429000B383CE01845B9F4F20E030E040E85FE3D2
:1042A000DC016D917D918D919C910E94AF2F8823AF
:1042B0004CF4CE01805B9F4F21E030E0FC01318364
:1042C0002083A5C0CE01845B9F4F20E03FEF4FE7E6
:1042D00057E4DC016D917D918D919C910E9430306D
:1042E000882309F00CF475C0CE01885B9F4F20E055
:1042F00030E040E251E4FC01608171818281938170
:104300000E943530C05DDE4F688379838A839B834A
:10431000C053D140C05DDE4F88819981AA81BB81A5
:10432000C053D140C453DF4F88839983AA83BB8392
:10433000CC5CD0408E01005B1F4FC453DF4F6881BF
:1043400079818A819B81CC5CD0400E94B42FCC5C67
:10435000DE4F688379838A839B83C453D140CC5CCE
:10436000DE4FE881F981C453D140D8011196FC9306
:10437000EE9326C0CE018E5A9F4F28EC30E0DC0130
:104380002D933C93CE018E5A9F4FFC0180819181E9
:104390000197F1F79E012E5A3F4FD9018D939C93BF
:1043A0000000CE01805B9F4F9E01205B3F4FF901D3
:1043B0002081318121503109DC0111963C932E93EB
:1043C000CE01805B9F4FFC0180819181009791F627
:1043D00039C08E01005B1F4FCE01845B9F4FDC0113
:1043E0006D917D918D919C910E94B42FC85CDE4FA0
:1043F000688379838A839B83C853D140C85CDE4F2E
:1044000088819981C853D140F80191838083CE017E
:104410008C5A9F4F9E01205B3F4FD9012D913C91BB
:10442000FC0131832083CE018C5A9F4FDC018D919A
:104430009C910197F1F79E012C5A3F4FF90191830E
:104440008083000081E00E94661589EB90E00E9465
:10445000971B66E081E00E94C21B89EC90E00E94FD
:10446000971B80E090E0AAE7B4E48AAF9BAFACAFC3
:10447000BDAF8E01025C1F4F20E030E04AEF54E4F4
:104480006AAD7BAD8CAD9DAD0E943530C45CDE4F16
:10449000688379838A839B83CC53D140C45CDE4F8D
:1044A00088819981AA81BB81CC53D140F801808356
:1044B0009183A283B383CE01CE9620E030E040E822
:1044C0005FE3DC016D917D918D919C910E94AF2FF6
:1044D00088234CF4CE018E5B9F4F21E030E0FC013D
:1044E000318320839FC0CE01CE9620E03FEF4FE77F
:1044F00057E4DC016D917D918D919C910E9430304B
:10450000882309F00CF471C020E030E040E251E46F
:104510006AAD7BAD8CAD9DAD0E943530C05CDE4F89
:10452000688379838A839B83C054D140C05CDE4F0B
:1045300088819981AA81BB81C054D140C853DF4F83
:1045400088839983AA83BB83C85CD0408E010E5BAD
:104550001F4FC853DF4F688179818A819B81C85C76
:10456000D0400E94B42FCC5BDE4F688379838A836E
:104570009B83C454D140CC5BDE4FE881F981C454A5
:10458000D140D8011196FC93EE9326C0CE018C5BEE
:104590009F4F28EC30E0DC012D933C93CE018C5BE7
:1045A0009F4FFC01808191810197F1F79E012C5B67
:1045B0003F4FD9018D939C930000CE018E5B9F4F9E
:1045C0009E012E5B3F4FF90120813181215031093D
:1045D000DC0111963C932E93CE018E5B9F4FFC0124
:1045E00080819181009791F638C08E010E5B1F4F3C
:1045F000CE01CE96DC016D917D918D919C910E94B2
:10460000B42FC85BDE4F688379838A839B83C85449
:10461000D140C85BDE4F88819981C854D140F801F0
:1046200091838083CE018A5B9F4F9E012E5B3F4F1B
:10463000D9012D913C91FC0131832083CE018A5B0D
:104640009F4FDC018D919C910197F1F79E012A5BB0
:104650003F4FF90191838083000081E00E9466153D
:1046600080E0A3C70E94B62B813009F016C180EA12
:1046700090E00E94971B9E012A5A3F4F80E090E0F5
:10468000A8ECB2E4F90180839183A283B3838E0105
:10469000065A1F4FCE018A5A9F4F20E030E04AEF62
:1046A00054E4DC016D917D918D919C910E94353097
:1046B000C45BDE4F688379838A839B83CC54D1406B
:1046C000C45BDE4F88819981AA81BB81CC54D140E3
:1046D000F80180839183A283B383CE01865A9F4FD2
:1046E00020E030E040E85FE3DC016D917D918D9149
:1046F0009C910E94AF2F88234CF4CE01825A9F4F89
:1047000021E030E0FC0131832083A5C0CE01865A30
:104710009F4F20E03FEF4FE757E4DC016D917D9123
:104720008D919C910E943030882309F00CF475C063
:10473000CE018A5A9F4F20E030E040E251E4FC0174
:1047400060817181828193810E943530C05BDE4F30
:10475000688379838A839B83C055D140C05BDE4FD9
:1047600088819981AA81BB81C055D140C053DF4F58
:1047700088839983AA83BB83C05DD0408E01025A8F
:104780001F4FC053DF4F688179818A819B81C05D53
:10479000D0400E94B42FCC5ADE4F688379838A833D
:1047A0009B83C455D140CC5ADE4FE881F981C45572
:1047B000D140D8011196FC93EE9326C0CE01805AC9
:1047C0009F4F28EC30E0DC012D933C93CE01805AC2
:1047D0009F4FFC01808191810197F1F79E01205A42
:1047E0003F4FD9018D939C930000CE01825A9F4F79
:1047F0009E01225A3F4FF901208131812150310918
:10480000DC0111963C932E93CE01825A9F4FFC01FE
:1048100080819181009791F639C08E01025A1F4F15
:10482000CE01865A9F4FDC016D917D918D919C91B7
:104830000E94B42FC85ADE4F688379838A839B8392
:10484000C855D140C85ADE4F88819981C855D1409A
:10485000F80191838083CE018E599F4F9E01225A89
:104860003F4FD9012D913C91FC0131832083CE0132
:104870008E599F4FDC018D919C910197F1F79E011C
:104880002E593F4FF90191838083000081E00E94FF
:1048900066150E94602D80E088C68BEA90E00E9439
:1048A000971B9E012E583F4F80E090E0A6E9B3E4AD
:1048B000F90180839183A283B3838E010A581F4F2D
:1048C000CE018E589F4F20E030E04AEF54E4DC01E7
:1048D0006D917D918D919C910E943530C45ADE4F2F
:1048E000688379838A839B83CC55D140C45ADE4F39
:1048F00088819981AA81BB81CC55D140F801808300
:104900009183A283B383CE018A589F4F20E030E089
:1049100040E85FE3DC016D917D918D919C910E9457
:10492000AF2F88234CF4CE0186589F4F21E030E012
:10493000FC0131832083A5C0CE018A589F4F20E01F
:104940003FEF4FE757E4DC016D917D918D919C9194
:104950000E943030882309F00CF475C0CE018E58C7
:104960009F4F20E030E040E251E4FC016081718122
:10497000828193810E943530C05ADE4F68837983EB
:104980008A839B83C056D140C05ADE4F888199816B
:10499000AA81BB81C056D140C852DF4F888399831A
:1049A000AA83BB83C85DD0408E0106581F4FC852F2
:1049B000DF4F688179818A819B81C85DD0400E94E8
:1049C000B42FCC59DE4F688379838A839B83C45686
:1049D000D140CC59DE4FE881F981C456D140D8018D
:1049E0001196FC93EE9326C0CE0184589F4F28EC7D
:1049F00030E0DC012D933C93CE0184589F4FFC01A5
:104A0000808191810197F1F79E0124583F4FD90190
:104A10008D939C930000CE0186589F4F9E0126588F
:104A20003F4FF9012081318121503109DC0111967C
:104A30003C932E93CE0186589F4FFC01808191813B
:104A4000009791F639C08E0106581F4FCE018A5843
:104A50009F4FDC016D917D918D919C910E94B42FAF
:104A6000C859DE4F688379838A839B83C856D140B7
:104A7000C859DE4F88819981C856D140F801918389
:104A80008083CE0182589F4F9E0126583F4FD90107
:104A90002D913C91FC0131832083CE0182589F4FA0
:104AA000DC018D919C910197F1F79E0122583F4FB7
:104AB000F90191838083000081E00E94661589EBF3
:104AC00090E00E94971B66E081E00E94C21B89EC87
:104AD00090E00E94971B9E012C593F4F80E090E090
:104AE000AAE7B5E4F90180839183A283B3838E01A1
:104AF00008591F4FCE018C599F4F20E030E04AEFFC
:104B000054E4DC016D917D918D919C910E94353032
:104B1000C459DE4F688379838A839B83CC56D14006
:104B2000C459DE4F88819981AA81BB81CC56D1407E
:104B3000F80180839183A283B383CE0188599F4F6C
:104B400020E030E040E85FE3DC016D917D918D91E4
:104B50009C910E94AF2F88234CF4CE0184599F4F23
:104B600021E030E0FC0131832083A5C0CE018859CB
:104B70009F4F20E03FEF4FE757E4DC016D917D91BF
:104B80008D919C910E943030882309F00CF475C0FF
:104B9000CE018C599F4F20E030E040E251E4FC010F
:104BA00060817181828193810E943530C059DE4FCE
:104BB000688379838A839B83C057D140C059DE4F75
:104BC00088819981AA81BB81C057D140CC52DF4FE7
:104BD00088839983AA83BB83C45DD0408E01045926
:104BE0001F4FCC52DF4F688179818A819B81C45DE0
:104BF000D0400E94B42FCC58DE4F688379838A83DB
:104C00009B83C457D140CC58DE4FE881F981C4570B
:104C1000D140D8011196FC93EE9326C0CE01825963
:104C20009F4F28EC30E0DC012D933C93CE0182595C
:104C30009F4FFC01808191810197F1F79E012259DC
:104C40003F4FD9018D939C930000CE0184599F4F13
:104C50009E0124593F4FF9012081318121503109B2
:104C6000DC0111963C932E93CE0184599F4FFC0199
:104C700080819181009791F639C08E0104591F4FB0
:104C8000CE0188599F4FDC016D917D918D919C9152
:104C90000E94B42FC858DE4F688379838A839B8330
:104CA000C857D140C858DE4F88819981C857D14034
:104CB000F80191838083CE0180599F4F9E01245932
:104CC0003F4FD9012D913C91FC0131832083CE01CE
:104CD00080599F4FDC018D919C910197F1F79E01C6
:104CE00020593F4FF90191838083000081E00E94A9
:104CF000661580E05AC40E948B2C813009F016C1E1
:104D000080EA90E00E94971B9E0120583F4F80E070
:104D100090E0A8ECB2E4F90180839183A283B3838D
:104D20008E010C571F4FCE0180589F4F20E030E07E
:104D30004AEF54E4DC016D917D918D919C910E942C
:104D40003530C458DE4F688379838A839B83CC5780
:104D5000D140C458DE4F88819981AA81BB81CC574C
:104D6000D140F80180839183A283B383CE018C5715
:104D70009F4F20E030E040E85FE3DC016D917D91E2
:104D80008D919C910E94AF2F88234CF4CE018857BF
:104D90009F4F21E030E0FC0131832083A5C0CE018C
:104DA0008C579F4F20E03FEF4FE757E4DC016D91B8
:104DB0007D918D919C910E943030882309F00CF4F4
:104DC00075C0CE0180589F4F20E030E040E251E4B2
:104DD000FC0160817181828193810E943530C058CD
:104DE000DE4F688379838A839B83C058D140C05843
:104DF000DE4F88819981AA81BB81C058D140C452BD
:104E0000DF4F88839983AA83BB83CC5DD0408E011A
:104E100008571F4FC452DF4F688179818A819B8177
:104E2000CC5DD0400E94B42FCC57DE4F688379838D
:104E30008A839B83C458D140CC57DE4FE881F981E7
:104E4000C458D140D8011196FC93EE9326C0CE01F0
:104E500086579F4F28EC30E0DC012D933C93CE0128
:104E600086579F4FFC01808191810197F1F79E0148
:104E700026573F4FD9018D939C930000CE01885750
:104E80009F4F9E0128573F4FF901208131812150CA
:104E90003109DC0111963C932E93CE0188579F4F28
:104EA000FC0180819181009791F639C08E010857ED
:104EB0001F4FCE018C579F4FDC016D917D918D91DD
:104EC0009C910E94B42FC857DE4F688379838A83F0
:104ED0009B83C858D140C857DE4F88819981C858F4
:104EE000D140F80191838083CE0184579F4F9E016A
:104EF00028573F4FD9012D913C91FC0131832083EC
:104F0000CE0184579F4FDC018D919C910197F1F761
:104F10009E0124573F4FF90191838083000081E077
:104F20000E9466150E94602D80E03FC38BEA90E0EE
:104F30000E94971B9E0124563F4F80E090E0A8EC12
:104F4000B2E4F90180839183A283B3838E0100567A
:104F50001F4FCE0184569F4F20E030E04AEF54E4CB
:104F6000DC016D917D918D919C910E943530C457EB
:104F7000DE4F688379838A839B83CC58D140C457A2
:104F8000DE4F88819981AA81BB81CC58D140F8013C
:104F900080839183A283B383CE0180569F4F20E00C
:104FA00030E040E85FE3DC016D917D918D919C9153
:104FB0000E94AF2F88234CF4CE018C559F4F21E0E7
:104FC00030E0FC0131832083A5C0CE0180569F4F85
:104FD00020E03FEF4FE757E4DC016D917D918D912B
:104FE0009C910E943030882309F00CF475C0CE01EA
:104FF00084569F4F20E030E040E251E4FC016081A4
:105000007181828193810E943530C057DE4F688361
:1050100079838A839B83C059D140C057DE4F8881F2
:105020009981AA81BB81C059D140CC51DF4F88837F
:105030009983AA83BB83C45ED0408E010C551F4F59
:10504000CC51DF4F688179818A819B81C45ED040D9
:105050000E94B42FCC56DE4F688379838A839B836A
:10506000C459D140CC56DE4FE881F981C459D140B2
:10507000D8011196FC93EE9326C0CE018A559F4F1E
:1050800028EC30E0DC012D933C93CE018A559F4FF4
:10509000FC01808191810197F1F79E012A553F4FD4
:1050A000D9018D939C930000CE018C559F4F9E019A
:1050B0002C553F4FF9012081318121503109DC010C
:1050C00011963C932E93CE018C559F4FFC0180810D
:1050D0009181009791F639C08E010C551F4FCE017A
:1050E00080569F4FDC016D917D918D919C910E9426
:1050F000B42FC856DE4F688379838A839B83C8594F
:10510000D140C856DE4F88819981C859D140F801F5
:1051100091838083CE0188559F4F9E012C553F4F30
:10512000D9012D913C91FC0131832083CE0188551A
:105130009F4FDC018D919C910197F1F79E012855BD
:105140003F4FF90191838083000081E00E94661542
:1051500089EB90E00E94971B66E081E00E94C21BF1
:1051600089EC90E00E94971B9E0122573F4F80E000
:1051700090E0AAE7B5E4F90180839183A283B38329
:105180008E010E561F4FCE0182579F4F20E030E018
:105190004AEF54E4DC016D917D918D919C910E94C8
:1051A0003530C456DE4F688379838A839B83CC591C
:1051B000D140C456DE4F88819981AA81BB81CC59E8
:1051C000D140F80180839183A283B383CE018E56B0
:1051D0009F4F20E030E040E85FE3DC016D917D917E
:1051E0008D919C910E94AF2F88234CF4CE018A565A
:1051F0009F4F21E030E0FC0131832083A5C0CE0128
:105200008E569F4F20E03FEF4FE757E4DC016D9152
:105210007D918D919C910E943030882309F00CF48F
:1052200075C0CE0182579F4F20E030E040E251E44C
:10523000FC0160817181828193810E943530C0566A
:10524000DE4F688379838A839B83C05AD140C056DE
:10525000DE4F88819981AA81BB81C05AD140C0525A
:10526000DF4F88839983AA83BB83C05ED0408E01C1
:105270000A561F4FC052DF4F688179818A819B8116
:10528000C05ED0400E94B42FCC55DE4F6883798336
:105290008A839B83C45AD140CC55DE4FE881F98183
:1052A000C45AD140D8011196FC93EE9326C0CE018A
:1052B00088569F4F28EC30E0DC012D933C93CE01C3
:1052C00088569F4FFC01808191810197F1F79E01E3
:1052D00028563F4FD9018D939C930000CE018A56EA
:1052E0009F4F9E012A563F4FF90120813181215065
:1052F0003109DC0111963C932E93CE018A569F4FC3
:10530000FC0180819181009791F639C08E010A5687
:105310001F4FCE018E569F4FDC016D917D918D9177
:105320009C910E94B42FC855DE4F688379838A838D
:105330009B83C85AD140C855DE4F88819981C85A8D
:10534000D140F80191838083CE0186569F4F9E0104
:105350002A563F4FD9012D913C91FC013183208386
:10536000CE0186569F4FDC018D919C910197F1F7FC
:105370009E0126563F4FF90191838083000081E012
:105380000E94661580E011C180ED90E00E94971B9D
:105390009E0126553F4F80E090E0A8ECB2E4F90171
:1053A00080839183A283B3838E0102551F4FCE0168
:1053B00086559F4F20E030E04AEF54E4DC016D91C8
:1053C0007D918D919C910E943530C455DE4F68834C
:1053D00079838A839B83CC5AD140C455DE4F888120
:1053E0009981AA81BB81CC5AD140F80180839183F5
:1053F000A283B383CE0182559F4F20E030E040E886
:105400005FE3DC016D917D918D919C910E94AF2FA6
:1054100088234CF4CE018E549F4F21E030E0FC01F4
:1054200031832083A5C0CE0182559F4F20E03FEFFE
:105430004FE757E4DC016D917D918D919C910E9425
:105440003030882309F00CF475C0CE0186559F4F8B
:1054500020E030E040E251E4FC0160817181828112
:1054600093810E943530C055DE4F688379838A83EB
:105470009B83C05BD140C055DE4F88819981AA8152
:10548000BB81C05BD140C851DF4F88839983AA8319
:10549000BB83C85ED0408E010E541F4FC851DF4FF2
:1054A000688179818A819B81C85ED0400E94B42F37
:1054B000CC54DE4F688379838A839B83C45BD1405D
:1054C000CC54DE4FE881F981C45BD140D8011196FC
:1054D000FC93EE9326C0CE018C549F4F28EC30E015
:1054E000DC012D933C93CE018C549F4FFC018081B5
:1054F00091810197F1F79E012C543F4FD9018D9373
:105500009C930000CE018E549F4F9E012E543F4F1E
:10551000F9012081318121503109DC0111963C9340
:105520002E93CE018E549F4FFC0180819181009774
:1055300091F63AC08E010E541F4FCE0182559F4FF7
:10554000DC016D917D918D919C910E94B42FC85486
:10555000DE4F688379838A839B83C85BD140C854BC
:10556000DE4F88819981C85BD140F80191838083A7
:10557000CE018A549F4F9E012E543F4FD9012D9149
:105580003C91FC0131832083CE018A549F4FDC0182
:105590008D919C9111970197F1F79E012A543F4FED
:1055A000F90191838083000080E0C554DE4F0FB67F
:1055B000F894DEBF0FBECDBFDF91CF911F910F9149
:1055C0000895CF93DF93CDB7DEB7AB970FB6F894BE
:1055D000DEBF0FBECDBF83E08983BAC00E94BC2D61
:1055E000688F798F8A8F9B8F888D998DAA8DBB8DBF
:1055F0008A839B83AC83BD8380916000909161001E
:10560000A0916200B09163004A815B816C817D81D1
:10561000481759076A077B0711F481E09EC08DED9A
:1056200090E00E94971B80E090E0A8ECB2E48E83AB
:105630009F83A887B98720E030E04AEF54E46E8169
:105640007F81888599850E9435306C8F7D8F8E8F04
:105650009F8F8C8D9D8DAE8DBF8D8A879B87AC87EC
:10566000BD8720E030E040E85FE36A857B858C857C
:105670009D850E94AF2F88232CF481E090E09F87C6
:105680008E8755C020E03FEF4FE757E46A857B8562
:105690008C859D850E9430308823D9F1D4F120E09B
:1056A00030E040E251E46E817F81888599850E94D7
:1056B000353068A379A38AA39BA388A199A1AAA145
:1056C000BBA18C8B9D8BAE8BBF8B6C897D898E89AA
:1056D0009F890E94B42F6CA37DA38EA39FA3ACA12E
:1056E000BDA1BF87AE8710C088EC90E0998B888BF6
:1056F000888999890197F1F7998B888B00008E85AD
:105700009F8501979F878E878E859F85009761F77C
:1057100019C06A857B858C859D850E94B42F68A7FA
:1057200079A78AA79BA788A599A59F878E878E852D
:105730009F859B8B8A8B8A899B890197F1F79B8B2D
:105740008A8B000081E00E946615898181508983DF
:105750008981882309F042CF80E0AB960FB6F89498
:10576000DEBF0FBECDBFDF91CF910895CF93DF9302
:10577000CDB7DEB7AB970FB6F894DEBF0FBECDBF87
:1057800083E08983BAC00E94BC2D688F798F8A8F8D
:105790009B8F888D998DAA8DBB8D8A839B83AC83CB
:1057A000BD838091640090916500A0916600B091E6
:1057B00067004A815B816C817D81481759076A07C0
:1057C0007B0711F481E09EC08DED90E00E94971B55
:1057D00080E090E0A8ECB2E48E839F83A887B9872D
:1057E00020E030E04AEF54E46E817F81888599851E
:1057F0000E9435306C8F7D8F8E8F9F8F8C8D9D8D0D
:10580000AE8DBF8D8A879B87AC87BD8720E030E057
:1058100040E85FE36A857B858C859D850E94AF2F7C
:1058200088232CF481E090E09F878E8755C020E08C
:105830003FEF4FE757E46A857B858C859D850E9405
:1058400030308823D9F1D4F120E030E040E251E457
:105850006E817F81888599850E94353068A379A300
:105860008AA39BA388A199A1AAA1BBA18C8B9D8B84
:10587000AE8BBF8B6C897D898E899F890E94B42FE6
:105880006CA37DA38EA39FA3ACA1BDA1BF87AE8750
:1058900010C088EC90E0998B888B88899989019752
:1058A000F1F7998B888B00008E859F8501979F87E4
:1058B0008E878E859F85009761F719C06A857B85E5
:1058C0008C859D850E94B42F68A779A78AA79BA77E
:1058D00088A599A59F878E878E859F859B8B8A8BB0
:1058E0008A899B890197F1F79B8B8A8B000081E065
:1058F0000E9466158981815089838981882309F0F6
:1059000042CF80E0AB960FB6F894DEBF0FBECDBF9E
:10591000DF91CF910895CF93DF93CDB7DEB7AB97EB
:105920000FB6F894DEBF0FBECDBF83E08983BAC047
:105930000E94BC2D688F798F8A8F9B8F888D998D5F
:10594000AA8DBB8D8A839B83AC83BD8380913D01EF
:1059500090913E01A0913F01B09140014A815B814D
:105960006C817D81481759076A077B0711F481E034
:105970009EC08DED90E00E94971B80E090E0A8EC27
:10598000B2E48E839F83A887B98720E030E04AEF96
:1059900054E46E817F81888599850E9435306C8FB3
:1059A0007D8F8E8F9F8F8C8D9D8DAE8DBF8D8A87C5
:1059B0009B87AC87BD8720E030E040E85FE36A85E5
:1059C0007B858C859D850E94AF2F88232CF481E0F8
:1059D00090E09F878E8755C020E03FEF4FE757E468
:1059E0006A857B858C859D850E9430308823D9F11E
:1059F000D4F120E030E040E251E46E817F8188857F
:105A000099850E94353068A379A38AA39BA388A1B6
:105A100099A1AAA1BBA18C8B9D8BAE8BBF8B6C89EE
:105A20007D898E899F890E94B42F6CA37DA38EA34C
:105A30009FA3ACA1BDA1BF87AE8710C088EC90E04A
:105A4000998B888B888999890197F1F7998B888B35
:105A500000008E859F8501979F878E878E859F8505
:105A6000009761F719C06A857B858C859D850E94AA
:105A7000B42F68A779A78AA79BA788A599A59F8710
:105A80008E878E859F859B8B8A8B8A899B890197C0
:105A9000F1F79B8B8A8B000081E00E94661589815B
:105AA000815089838981882309F042CF80E0AB96B9
:105AB0000FB6F894DEBF0FBECDBFDF91CF91089532
:105AC000CF93DF930F92CDB7DEB788EE90E00E94C0
:105AD000971B60E081E00E94C21B87EF90E00E946C
